{
  "contractName": "AcctCont",
  "abi": [
    {
      "inputs": [
        {
          "internalType": "address",
          "name": "",
          "type": "address"
        },
        {
          "internalType": "address",
          "name": "",
          "type": "address"
        }
      ],
      "name": "isDevAuthorized",
      "outputs": [
        {
          "internalType": "bool",
          "name": "",
          "type": "bool"
        }
      ],
      "stateMutability": "nonpayable",
      "type": "function"
    }
  ],
  "bytecode": "0x608060405234801561001057600080fd5b5060e48061001f6000396000f3fe6080604052348015600f57600080fd5b506004361060285760003560e01c8063e56f9af814602d575b600080fd5b608c60048036036040811015604157600080fd5b81019080803573ffffffffffffffffffffffffffffffffffffffff169060200190929190803573ffffffffffffffffffffffffffffffffffffffff16906020019092919050505060a6565b604051808215151515815260200191505060405180910390f35b60009291505056fea264697066735822122039bbe264a0f55615598e441218dc8abd03b30a2cbe3c52c92bba931a8e9d340964736f6c63430006030033",
  "source": "pragma solidity ^0.6.3;\n\n// import \"openzeppelin-solidity/contracts/ownership/Ownable.sol\";\nimport \"../node_modules/openzeppelin-solidity/contracts/ownership/Ownable.sol\";\n\ncontract AcctCont {\n    function isDevAuthorized(address, address) public returns (bool) {}\n}\n\ncontract Havens is Ownable {\n\n    AcctCont ac;\n    \n    // The address of the Natural Rights Server Testing\n    address public naturalRightsAddress;\n\n    // The address of the Account Contract\n    address public accountContractAddress;\n\n    constructor(address acctContAddr) public {\n        ac = AcctCont(acctContAddr);\n    }\n\n    /// @dev Access modifier for NR-only functionality\n    modifier onlyNR() {\n        require(msg.sender == naturalRightsAddress);\n        _;\n    }\n\n    struct havenStruct {\n        string naturalRightsId; // Natural Rights ID\n        address acctAddr; // Haven owner\n        string havenName; // Haven name\n        bool isPrivate; // Haven private bool\n        uint listPointer;\n    }\n    \n    struct havenNameTransfer {\n        string fromHaven;\n        string initExpectedHavenName;\n        uint listPointer;\n        // bool paymentMade\n    }\n\n    mapping (uint256 => havenStruct) haven; // natural rights Haven ID hash to public identifiers\n    mapping (uint256 => address) havenOwner; // natural rights Haven ID hash to Loom Account address of owner\n    mapping (uint256 => uint256) havenName; // maps haven name hash to natural rights haven id hash\n    \n    mapping (address => uint256[]) havensOwned; // maps Loom Account address to owned Haven natural rights ids \n    \n    uint256[] public havenList; // public Haven index\n    mapping (uint256 => havenNameTransfer) havenNameTransferQueue; // Queues Haven Name transfer from initiator (value) to comfirmer (key)\n    uint256[] public havenNameTransferList; // List of Haven name confirmers\n    \n    \n    // Only contract owner may change Natural Rights Server\n    function setNaturalRightsServer(address _newNaturalRights) public onlyOwner returns(bool success) {\n        require(_newNaturalRights != address(0));\n        naturalRightsAddress = _newNaturalRights;\n        return true;\n    }\n\n    // Only contract owner may change Account Contract Address\n    function setAccountContract(address _newAcctContAddr) public onlyOwner returns(bool success) {\n        require(_newAcctContAddr != address(0));\n        ac = AcctCont(_newAcctContAddr);\n        return true;\n    }\n    \n    // Only Natural Rights server may add havens\n    function addHaven(string memory _naturalRightsId, address _acctAddr) public onlyNR returns(bool success) {\n        uint256 naturalRightsIdHash = uint256(keccak256(bytes(_naturalRightsId)));\n        havenOwner[naturalRightsIdHash] = _acctAddr;\n        return true;\n    }\n    \n    // Is haven added by NR\n    function isHavenOwned(string memory _naturalRightsId) public view returns(bool isIndeed) {\n        uint256 naturalRightsIdHash = uint256(keccak256(bytes(_naturalRightsId)));\n        if(havenOwner[naturalRightsIdHash] != address(0)) {\n            return true;\n        }\n        return false;\n    }\n    \n    // Is haven active\n    function isHavenSet(string memory _naturalRightsId) public view returns(bool isIndeed) {\n        if(havenList.length == 0) return false;\n        uint256 naturalRightsIdHash = uint256(keccak256(bytes(_naturalRightsId)));\n        return (havenList[haven[naturalRightsIdHash].listPointer] == naturalRightsIdHash);\n    }\n    \n    // Loom address of Haven\n    function havenOwnerAddress(string memory _naturalRightsId) public view returns(address loomAddress) {\n        uint256 naturalRightsIdHash = uint256(keccak256(bytes(_naturalRightsId)));\n        return havenOwner[naturalRightsIdHash];\n    }\n\n    // Number of active havens\n    function getHavenCount() public view returns(uint havenCount) {\n        return havenList.length;\n    }\n    \n    function isHavenName(string memory _havenName) public view returns(bool isIndeed) {\n        uint256 havenNameHash = uint256(keccak256(bytes(_havenName)));\n        if(havenName[havenNameHash] != 0) {\n            return true;\n        } else {\n            return false;\n        }\n    }\n    \n    function getHavenName(string memory _naturalRightsId) public view returns(string memory) {\n        if(isHavenSet(_naturalRightsId) == true) {\n            uint256 naturalRightsIdHash = uint256(keccak256(bytes(_naturalRightsId)));\n            return haven[naturalRightsIdHash].havenName;\n        } \n        revert('Natural Rights Haven Id does not match a Haven Name');\n    }\n\n    function getHavenIdFromName(string memory _havenName) public view returns(string memory) {\n        uint256 havenNameHash = uint256(keccak256(bytes(_havenName)));\n        require(havenName[havenNameHash] != 0, 'Haven Name does not exist');\n        uint256 naturalRightsIdHash = havenName[havenNameHash];\n        return haven[naturalRightsIdHash].naturalRightsId;\n    }\n    \n    // Is msg.sender authorized to sign for the account?\n    function isDevAuthorized(address _acctAddr) public returns(bool isIndeed) {\n        return ac.isDevAuthorized(_acctAddr, msg.sender);\n    }\n    \n    // Is msg.sender authorized to sign for the Haven?\n    function isDevHavenAuthorized(string memory _naturalRightsId) public returns(bool isIndeed) {\n        uint256 naturalRightsIdHash = uint256(keccak256(bytes(_naturalRightsId)));\n        return ac.isDevAuthorized(havenOwner[naturalRightsIdHash], msg.sender);\n    }\n    \n    // haven initializes the public havens structs to become active\n    function initHaven(string memory _naturalRightsId, string memory _havenName, bool _isPrivate) public returns(bool success) {\n        require(isHavenOwned(_naturalRightsId), \"Haven Natural Rights Id is not Owned by Loom Account\");\n        require(isDevHavenAuthorized(_naturalRightsId), \"msg.sender not authorized for Haven\");\n        require(!isHavenSet(_naturalRightsId), \"Haven has already been set\");\n        require(!isHavenName(_havenName), \"Haven name already taken\");\n        uint256 naturalRightsIdHash = uint256(keccak256(bytes(_naturalRightsId)));\n        address havenOwnerAcctAddr = havenOwner[naturalRightsIdHash];\n        uint256 havenNameHash = uint256(keccak256(bytes(_havenName)));\n        \n        // Set Storage Values\n        haven[naturalRightsIdHash].havenName = _havenName;\n        haven[naturalRightsIdHash].naturalRightsId = _naturalRightsId;\n        haven[naturalRightsIdHash].acctAddr = havenOwnerAcctAddr;\n        haven[naturalRightsIdHash].isPrivate = _isPrivate;\n        haven[naturalRightsIdHash].listPointer = havenList.length;\n        havenList.push(naturalRightsIdHash);\n        havenName[havenNameHash] = naturalRightsIdHash;\n        return true;\n    }\n\n    // update existing Haven name with new unique name\n    function updateHavenName(string memory _naturalRightsId, string memory _newHavenName) public returns(bool success) {\n        require(isHavenSet(_naturalRightsId), 'Haven has not been set by user');\n        require(isDevHavenAuthorized(_naturalRightsId), 'msg.sender not authorized for Haven');\n        require(!isHavenName(_newHavenName), 'Haven name already taken');\n        uint256 havenNameHash = uint256(keccak256(bytes(_newHavenName)));\n        uint256 naturalRightsIdHash = uint256(keccak256(bytes(_naturalRightsId)));\n        uint256 oldHavenNameHash = uint256(keccak256(bytes(haven[naturalRightsIdHash].havenName)));\n        delete haven[naturalRightsIdHash].havenName;\n        haven[naturalRightsIdHash].havenName = _newHavenName;\n        delete havenName[oldHavenNameHash];\n        havenName[havenNameHash] = naturalRightsIdHash;\n        return true;\n    }\n\n    function initTransferHavenName(string memory _fromHaven, string memory _toHaven, string memory _expectedHavenName) public returns(bool success) {\n        require(isHavenSet(_fromHaven) && isHavenSet(_toHaven), 'One or both Havens do not exist');\n        require(isDevHavenAuthorized(_fromHaven), 'msg.sender not authorized for Haven');\n        require(uint256(keccak256(bytes(getHavenName(_toHaven)))) == uint256(keccak256(bytes(_expectedHavenName))), 'Expected Haven name not equal to toHaven name');\n        uint256 fromHavenHash = uint256(keccak256(bytes(_fromHaven)));\n        uint256 toHavenHash = uint256(keccak256(bytes(_toHaven)));\n        havenNameTransferQueue[toHavenHash].fromHaven = _fromHaven;\n        havenNameTransferQueue[toHavenHash].listPointer = havenNameTransferList.length;\n        havenNameTransferList.push(fromHavenHash);\n        return true;\n    }\n\n    function confirmTransferHavenName(string memory _toHaven, string memory _expectedHavenName) public returns(bool success) {\n        require(isDevHavenAuthorized(_toHaven), 'msg.sender not authorized for Haven');\n        string memory fromHaven = havenNameTransferQueue[uint256(keccak256(bytes(_toHaven)))].fromHaven;\n        require(isHavenSet(fromHaven) && isHavenSet(_toHaven), 'One or both Havens do not exist');\n        uint256 toHavenHash = uint256(keccak256(bytes(_toHaven)));\n        uint256 fromHavenHash = uint256(keccak256(bytes(fromHaven)));\n        require(keccak256(bytes(haven[fromHavenHash].havenName)) == keccak256(bytes(_expectedHavenName)), 'Havenname mismatch: confirmer expectedHavenName does not match initiator havenName');\n        require(keccak256(bytes(havenNameTransferQueue[toHavenHash].initExpectedHavenName)) == keccak256(bytes(haven[toHavenHash].havenName)), 'Havenname mismatch: confirmer havenName does not match initiators expected havenName');\n        uint256 expectedHavenNameHash = uint256(keccak256(bytes(_expectedHavenName)));\n        uint256 confirmHavenNameHash = uint256(keccak256(bytes(haven[toHavenHash].havenName)));\n        havenName[expectedHavenNameHash] = fromHavenHash;\n        havenName[confirmHavenNameHash] = toHavenHash;\n        haven[fromHavenHash].havenName = haven[toHavenHash].havenName;\n        haven[toHavenHash].havenName = _expectedHavenName;\n        // Remove the havenName transfer queue and row in list\n        uint rowToDelete = havenNameTransferQueue[toHavenHash].listPointer;\n        delete havenNameTransferQueue[toHavenHash];\n        uint256 keyToMove = havenNameTransferList[havenNameTransferList.length-1];\n        havenNameTransferList[rowToDelete] = keyToMove;\n        havenNameTransferQueue[keyToMove].listPointer = rowToDelete;\n        havenNameTransferList.pop();\n        return true;\n    }\n\n    // deletes the haven from the havenList and also deletes the havenName. havenPriv and NR account mapping left for recovery\n    function deleteHaven(string memory _naturalRightsId) public returns(bool success) {\n        require(isDevHavenAuthorized(_naturalRightsId), 'msg.sender not authorized for Haven');\n        require(isHavenSet(_naturalRightsId), 'Haven does not exist');\n        uint256 havenHash = uint256(keccak256(bytes(_naturalRightsId)));\n        uint rowToDelete = haven[havenHash].listPointer;\n        uint256 keyToMove = havenList[havenList.length-1];\n        havenList[rowToDelete] = keyToMove;\n        haven[keyToMove].listPointer = rowToDelete;\n        havenList.pop();\n        uint256 havenNameHash = uint256(keccak256(bytes(haven[havenHash].havenName)));\n        delete havenName[havenNameHash];\n        delete haven[havenHash].havenName; \n        return true;\n    }\n}\n",
  "sourcePath": "/home/charles/Projects/gitlab/haven-truffle/contracts/Havens.sol",
  "compiler": {
    "name": "solc",
    "version": "0.6.3+commit.8dda9521.Emscripten.clang"
  },
  "schemaVersion": "3.0.23",
  "updatedAt": "2020-02-26T02:20:25.841Z",
  "devdoc": {
    "methods": {}
  },
  "userdoc": {
    "methods": {}
  }
}