{
  "contractName": "Documents",
  "abi": [
    {
      "inputs": [
        {
          "internalType": "address",
          "name": "acctContAddr",
          "type": "address"
        },
        {
          "internalType": "address",
          "name": "walletContAddr",
          "type": "address"
        }
      ],
      "stateMutability": "nonpayable",
      "type": "constructor"
    },
    {
      "anonymous": false,
      "inputs": [
        {
          "indexed": false,
          "internalType": "bytes32",
          "name": "naturalRightsId",
          "type": "bytes32"
        },
        {
          "indexed": false,
          "internalType": "bytes32",
          "name": "parentNrId",
          "type": "bytes32"
        },
        {
          "indexed": false,
          "internalType": "uint256",
          "name": "timestamp",
          "type": "uint256"
        }
      ],
      "name": "AddDocument",
      "type": "event"
    },
    {
      "anonymous": false,
      "inputs": [
        {
          "indexed": true,
          "internalType": "address",
          "name": "previousOwner",
          "type": "address"
        },
        {
          "indexed": true,
          "internalType": "address",
          "name": "newOwner",
          "type": "address"
        }
      ],
      "name": "OwnershipTransferred",
      "type": "event"
    },
    {
      "anonymous": false,
      "inputs": [
        {
          "indexed": false,
          "internalType": "bytes32",
          "name": "naturalRightsId",
          "type": "bytes32"
        },
        {
          "indexed": false,
          "internalType": "uint256",
          "name": "value",
          "type": "uint256"
        }
      ],
      "name": "TipDocument",
      "type": "event"
    },
    {
      "inputs": [],
      "name": "accountContractAddress",
      "outputs": [
        {
          "internalType": "address",
          "name": "",
          "type": "address"
        }
      ],
      "stateMutability": "view",
      "type": "function",
      "constant": true
    },
    {
      "inputs": [],
      "name": "isOwner",
      "outputs": [
        {
          "internalType": "bool",
          "name": "",
          "type": "bool"
        }
      ],
      "stateMutability": "view",
      "type": "function",
      "constant": true
    },
    {
      "inputs": [],
      "name": "owner",
      "outputs": [
        {
          "internalType": "address",
          "name": "",
          "type": "address"
        }
      ],
      "stateMutability": "view",
      "type": "function",
      "constant": true
    },
    {
      "inputs": [],
      "name": "renounceOwnership",
      "outputs": [],
      "stateMutability": "nonpayable",
      "type": "function"
    },
    {
      "inputs": [
        {
          "internalType": "address",
          "name": "newOwner",
          "type": "address"
        }
      ],
      "name": "transferOwnership",
      "outputs": [],
      "stateMutability": "nonpayable",
      "type": "function"
    },
    {
      "inputs": [],
      "name": "walletContractAddress",
      "outputs": [
        {
          "internalType": "address",
          "name": "",
          "type": "address"
        }
      ],
      "stateMutability": "view",
      "type": "function",
      "constant": true
    },
    {
      "inputs": [
        {
          "internalType": "address",
          "name": "_newAcctContAddr",
          "type": "address"
        }
      ],
      "name": "setAccountContract",
      "outputs": [
        {
          "internalType": "bool",
          "name": "success",
          "type": "bool"
        }
      ],
      "stateMutability": "nonpayable",
      "type": "function"
    },
    {
      "inputs": [
        {
          "internalType": "address",
          "name": "_newAcctContAddr",
          "type": "address"
        }
      ],
      "name": "setWalletContract",
      "outputs": [
        {
          "internalType": "bool",
          "name": "success",
          "type": "bool"
        }
      ],
      "stateMutability": "nonpayable",
      "type": "function"
    },
    {
      "inputs": [
        {
          "internalType": "bytes32",
          "name": "_naturalRightsId",
          "type": "bytes32"
        },
        {
          "internalType": "bytes32",
          "name": "_parentNrId",
          "type": "bytes32"
        },
        {
          "internalType": "address",
          "name": "_acctAddr",
          "type": "address"
        }
      ],
      "name": "addDocument",
      "outputs": [
        {
          "internalType": "bool",
          "name": "success",
          "type": "bool"
        }
      ],
      "stateMutability": "nonpayable",
      "type": "function"
    },
    {
      "inputs": [
        {
          "internalType": "bytes32",
          "name": "_naturalRightsId",
          "type": "bytes32"
        },
        {
          "internalType": "address",
          "name": "_acctAddr",
          "type": "address"
        },
        {
          "internalType": "uint256",
          "name": "value",
          "type": "uint256"
        }
      ],
      "name": "tipDocument",
      "outputs": [
        {
          "internalType": "bool",
          "name": "success",
          "type": "bool"
        }
      ],
      "stateMutability": "nonpayable",
      "type": "function"
    }
  ],
  "bytecode": "0x608060405234801561001057600080fd5b506040516114a23803806114a28339818101604052604081101561003357600080fd5b810190808051906020019092919080519060200190929190505050600061005e61018560201b60201c565b9050806000806101000a81548173ffffffffffffffffffffffffffffffffffffffff021916908373ffffffffffffffffffffffffffffffffffffffff1602179055508073ffffffffffffffffffffffffffffffffffffffff16600073ffffffffffffffffffffffffffffffffffffffff167f8be0079c531659141344cd1fd0a4f28419497f9722a3daafe3b4186f6b6457e060405160405180910390a35081600160006101000a81548173ffffffffffffffffffffffffffffffffffffffff021916908373ffffffffffffffffffffffffffffffffffffffff16021790555080600260006101000a81548173ffffffffffffffffffffffffffffffffffffffff021916908373ffffffffffffffffffffffffffffffffffffffff160217905550505061018d565b600033905090565b6113068061019c6000396000f3fe608060405234801561001057600080fd5b506004361061009e5760003560e01c80638da5cb5b116100665780638da5cb5b1461021f5780638f32d59b14610269578063c3d8b2281461028b578063cf7edaa6146102d5578063f2fde38b146103455761009e565b806327ccdbc5146100a357806347d94e55146100ff578063524170261461015b578063589c1bb4146101cb578063715018a614610215575b600080fd5b6100e5600480360360208110156100b957600080fd5b81019080803573ffffffffffffffffffffffffffffffffffffffff169060200190929190505050610389565b604051808215151515815260200191505060405180910390f35b6101416004803603602081101561011557600080fd5b81019080803573ffffffffffffffffffffffffffffffffffffffff1690602001909291905050506104f2565b604051808215151515815260200191505060405180910390f35b6101b16004803603606081101561017157600080fd5b8101908080359060200190929190803573ffffffffffffffffffffffffffffffffffffffff1690602001909291908035906020019092919050505061065b565b604051808215151515815260200191505060405180910390f35b6101d3610cf1565b604051808273ffffffffffffffffffffffffffffffffffffffff1673ffffffffffffffffffffffffffffffffffffffff16815260200191505060405180910390f35b61021d610d17565b005b610227610e50565b604051808273ffffffffffffffffffffffffffffffffffffffff1673ffffffffffffffffffffffffffffffffffffffff16815260200191505060405180910390f35b610271610e79565b604051808215151515815260200191505060405180910390f35b610293610ed7565b604051808273ffffffffffffffffffffffffffffffffffffffff1673ffffffffffffffffffffffffffffffffffffffff16815260200191505060405180910390f35b61032b600480360360608110156102eb57600080fd5b810190808035906020019092919080359060200190929190803573ffffffffffffffffffffffffffffffffffffffff169060200190929190505050610efd565b604051808215151515815260200191505060405180910390f35b6103876004803603602081101561035b57600080fd5b81019080803573ffffffffffffffffffffffffffffffffffffffff1690602001909291905050506110b3565b005b6000610393610e79565b610405576040517f08c379a00000000000000000000000000000000000000000000000000000000081526004018080602001828103825260208152602001807f4f776e61626c653a2063616c6c6572206973206e6f7420746865206f776e657281525060200191505060405180910390fd5b600073ffffffffffffffffffffffffffffffffffffffff168273ffffffffffffffffffffffffffffffffffffffff1614156104a8576040517f08c379a00000000000000000000000000000000000000000000000000000000081526004018080602001828103825260188152602001807f61646472657373206d757374206e6f7420657175616c2030000000000000000081525060200191505060405180910390fd5b81600160006101000a81548173ffffffffffffffffffffffffffffffffffffffff021916908373ffffffffffffffffffffffffffffffffffffffff16021790555060019050919050565b60006104fc610e79565b61056e576040517f08c379a00000000000000000000000000000000000000000000000000000000081526004018080602001828103825260208152602001807f4f776e61626c653a2063616c6c6572206973206e6f7420746865206f776e657281525060200191505060405180910390fd5b600073ffffffffffffffffffffffffffffffffffffffff168273ffffffffffffffffffffffffffffffffffffffff161415610611576040517f08c379a00000000000000000000000000000000000000000000000000000000081526004018080602001828103825260188152602001807f61646472657373206d757374206e6f7420657175616c2030000000000000000081525060200191505060405180910390fd5b81600160006101000a81548173ffffffffffffffffffffffffffffffffffffffff021916908373ffffffffffffffffffffffffffffffffffffffff16021790555060019050919050565b6000600160009054906101000a900473ffffffffffffffffffffffffffffffffffffffff1673ffffffffffffffffffffffffffffffffffffffff1663e56f9af884336040518363ffffffff1660e01b8152600401808373ffffffffffffffffffffffffffffffffffffffff1673ffffffffffffffffffffffffffffffffffffffff1681526020018273ffffffffffffffffffffffffffffffffffffffff1673ffffffffffffffffffffffffffffffffffffffff16815260200192505050602060405180830381600087803b15801561073257600080fd5b505af1158015610746573d6000803e3d6000fd5b505050506040513d602081101561075c57600080fd5b81019080805190602001909291905050506107c2576040517f08c379a00000000000000000000000000000000000000000000000000000000081526004018080602001828103825260258152602001806112ac6025913960400191505060405180910390fd5b81600260009054906101000a900473ffffffffffffffffffffffffffffffffffffffff1673ffffffffffffffffffffffffffffffffffffffff1663de59f79c856040518263ffffffff1660e01b8152600401808273ffffffffffffffffffffffffffffffffffffffff1673ffffffffffffffffffffffffffffffffffffffff168152602001915050602060405180830381600087803b15801561086457600080fd5b505af1158015610878573d6000803e3d6000fd5b505050506040513d602081101561088e57600080fd5b81019080805190602001909291905050501015610913576040517f08c379a00000000000000000000000000000000000000000000000000000000081526004018080602001828103825260178152602001807f6163636f756e742062616c616e636520746f6f206c6f7700000000000000000081525060200191505060405180910390fd5b6000801b60056000868152602001908152602001600020600001541415610aeb57816005600086815260200190815260200160002060030160008282540192505081905550600260009054906101000a900473ffffffffffffffffffffffffffffffffffffffff1673ffffffffffffffffffffffffffffffffffffffff16634a9a0ae9846005600088815260200190815260200160002060010160009054906101000a900473ffffffffffffffffffffffffffffffffffffffff16856040518463ffffffff1660e01b8152600401808473ffffffffffffffffffffffffffffffffffffffff1673ffffffffffffffffffffffffffffffffffffffff1681526020018373ffffffffffffffffffffffffffffffffffffffff1673ffffffffffffffffffffffffffffffffffffffff1681526020018281526020019350505050602060405180830381600087803b158015610a6b57600080fd5b505af1158015610a7f573d6000803e3d6000fd5b505050506040513d6020811015610a9557600080fd5b8101908080519060200190929190505050507f1e7ac79c651437ffa45ac0f890bcc450a6143fb6ae81c5cb8c6851b56312905d8483604051808381526020018281526020019250505060405180910390a1610ce6565b6000600a6009840281610afa57fe5b0490506000600a6001850281610b0c57fe5b049050816005600088815260200190815260200160002060030160008282540192505081905550600260009054906101000a900473ffffffffffffffffffffffffffffffffffffffff1673ffffffffffffffffffffffffffffffffffffffff16634a9a0ae986600560008a815260200190815260200160002060010160009054906101000a900473ffffffffffffffffffffffffffffffffffffffff16856040518463ffffffff1660e01b8152600401808473ffffffffffffffffffffffffffffffffffffffff1673ffffffffffffffffffffffffffffffffffffffff1681526020018373ffffffffffffffffffffffffffffffffffffffff1673ffffffffffffffffffffffffffffffffffffffff1681526020018281526020019350505050602060405180830381600087803b158015610c4657600080fd5b505af1158015610c5a573d6000803e3d6000fd5b505050506040513d6020811015610c7057600080fd5b810190808051906020019092919050505050610ca36005600088815260200190815260200160002060000154868361065b565b507f1e7ac79c651437ffa45ac0f890bcc450a6143fb6ae81c5cb8c6851b56312905d8683604051808381526020018281526020019250505060405180910390a150505b600190509392505050565b600360009054906101000a900473ffffffffffffffffffffffffffffffffffffffff1681565b610d1f610e79565b610d91576040517f08c379a00000000000000000000000000000000000000000000000000000000081526004018080602001828103825260208152602001807f4f776e61626c653a2063616c6c6572206973206e6f7420746865206f776e657281525060200191505060405180910390fd5b600073ffffffffffffffffffffffffffffffffffffffff166000809054906101000a900473ffffffffffffffffffffffffffffffffffffffff1673ffffffffffffffffffffffffffffffffffffffff167f8be0079c531659141344cd1fd0a4f28419497f9722a3daafe3b4186f6b6457e060405160405180910390a360008060006101000a81548173ffffffffffffffffffffffffffffffffffffffff021916908373ffffffffffffffffffffffffffffffffffffffff160217905550565b60008060009054906101000a900473ffffffffffffffffffffffffffffffffffffffff16905090565b60008060009054906101000a900473ffffffffffffffffffffffffffffffffffffffff1673ffffffffffffffffffffffffffffffffffffffff16610ebb611139565b73ffffffffffffffffffffffffffffffffffffffff1614905090565b600460009054906101000a900473ffffffffffffffffffffffffffffffffffffffff1681565b60008073ffffffffffffffffffffffffffffffffffffffff166005600086815260200190815260200160002060010160009054906101000a900473ffffffffffffffffffffffffffffffffffffffff1673ffffffffffffffffffffffffffffffffffffffff1614610fd6576040517f08c379a00000000000000000000000000000000000000000000000000000000081526004018080602001828103825260128152602001807f646f63756d656e74206e6f7420656d707479000000000000000000000000000081525060200191505060405180910390fd5b826005600086815260200190815260200160002060000181905550816005600086815260200190815260200160002060010160006101000a81548173ffffffffffffffffffffffffffffffffffffffff021916908373ffffffffffffffffffffffffffffffffffffffff1602179055504260056000868152602001908152602001600020600201819055507f24f520cddaf671e6266cf777208b3b0276509c6a1243796ba546e1e9eb73d46884844260405180848152602001838152602001828152602001935050505060405180910390a1600190509392505050565b6110bb610e79565b61112d576040517f08c379a00000000000000000000000000000000000000000000000000000000081526004018080602001828103825260208152602001807f4f776e61626c653a2063616c6c6572206973206e6f7420746865206f776e657281525060200191505060405180910390fd5b61113681611141565b50565b600033905090565b600073ffffffffffffffffffffffffffffffffffffffff168173ffffffffffffffffffffffffffffffffffffffff1614156111c7576040517f08c379a00000000000000000000000000000000000000000000000000000000081526004018080602001828103825260268152602001806112866026913960400191505060405180910390fd5b8073ffffffffffffffffffffffffffffffffffffffff166000809054906101000a900473ffffffffffffffffffffffffffffffffffffffff1673ffffffffffffffffffffffffffffffffffffffff167f8be0079c531659141344cd1fd0a4f28419497f9722a3daafe3b4186f6b6457e060405160405180910390a3806000806101000a81548173ffffffffffffffffffffffffffffffffffffffff021916908373ffffffffffffffffffffffffffffffffffffffff1602179055505056fe4f776e61626c653a206e6577206f776e657220697320746865207a65726f20616464726573736d73672e73656e646572206e6f7420617574686f72697a656420666f72206163636f756e74a26469706673582212205e9250b7901dd20ce0dff87b45ad2790255074d4f148743d597e43c7f912449c64736f6c63430006030033",
  "source": "pragma solidity ^0.6.3;\n\n// import \"openzeppelin-solidity/contracts/ownership/Ownable.sol\";\nimport \"../node_modules/openzeppelin-solidity/contracts/ownership/Ownable.sol\";\n\ninterface AcctCont {\n    function isDevAuthorized(address, address) external returns (bool);\n}\n\ninterface WalletCont {\n    function getAcctBal(address) external returns(uint256 value);\n    function transferKudosDoc(address, address, uint256) external returns(bool success);\n}\n\ncontract Documents is Ownable {\n\n    AcctCont ac;\n    WalletCont wc;\n\n    // The address of the Account Contract\n    address public accountContractAddress;\n\n    // The address of the Wallet Contract\n    address public walletContractAddress;\n\n    constructor(address acctContAddr, address walletContAddr) public {\n        ac = AcctCont(acctContAddr);\n        wc = WalletCont(walletContAddr);\n    }\n\n    struct documentStruct {\n        bytes32 parentNrId; // Parent Nr ID\n        address acctAddr; // document Nr owner\n        uint timestamp; // timestamp of document\n        uint256 kudosEarned; // kudosEarned by document\n    }\n\n    mapping (bytes32 => documentStruct) document; // natural rights Haven ID hash to document\n\n    // Only contract owner may change Account Contract Address\n    function setAccountContract(address _newAcctContAddr) public onlyOwner returns(bool success) {\n        require(_newAcctContAddr != address(0), \"address must not equal 0\");\n        ac = AcctCont(_newAcctContAddr);\n        return true;\n    }\n\n    // Only contract owner may change Account Contract Address\n    function setWalletContract(address _newAcctContAddr) public onlyOwner returns(bool success) {\n        require(_newAcctContAddr != address(0),\"address must not equal 0\");\n        ac = AcctCont(_newAcctContAddr);\n        return true;\n    }\n    \n    // Add document event\n    event AddDocument(\n        bytes32 naturalRightsId,\n        bytes32 parentNrId,\n        uint timestamp\n    );\n\n    // Add document\n    function addDocument(bytes32 _naturalRightsId, bytes32 _parentNrId, address _acctAddr) public returns(bool success) {\n        require(document[_naturalRightsId].acctAddr == address(0), \"document not empty\");\n        document[_naturalRightsId].parentNrId = _parentNrId;\n        document[_naturalRightsId].acctAddr = _acctAddr;\n        document[_naturalRightsId].timestamp = now;\n        emit AddDocument(_naturalRightsId, _parentNrId, now);\n        return true;\n    }\n\n    // Tip document event\n    event TipDocument(\n        bytes32 naturalRightsId,\n        uint256 value\n    );\n\n    // Tip Document\n    function tipDocument(bytes32 _naturalRightsId, address _acctAddr, uint256 value) public returns(bool success) {\n        require(ac.isDevAuthorized(_acctAddr, msg.sender), \"msg.sender not authorized for account\");\n        require(wc.getAcctBal(_acctAddr)>=value, \"account balance too low\");\n        if(document[_naturalRightsId].parentNrId == 0) {\n            document[_naturalRightsId].kudosEarned += value;\n            wc.transferKudosDoc(_acctAddr, document[_naturalRightsId].acctAddr, value);\n            emit TipDocument(_naturalRightsId, value);\n        } else {\n            uint256 netValue = value * 9 / 10;\n            uint256 rake = value * 1 / 10;\n            document[_naturalRightsId].kudosEarned += netValue;\n            wc.transferKudosDoc(_acctAddr, document[_naturalRightsId].acctAddr, netValue);\n            tipDocument(document[_naturalRightsId].parentNrId, _acctAddr, rake);\n            emit TipDocument(_naturalRightsId, netValue);\n        }\n        return true;\n    }\n}\n",
  "sourcePath": "/home/charles/Projects/gitlab/haven-truffle/contracts/Documents.sol",
  "compiler": {
    "name": "solc",
    "version": "0.6.3+commit.8dda9521.Emscripten.clang"
  },
  "schemaVersion": "3.0.23",
  "updatedAt": "2020-03-01T18:47:01.366Z",
  "networkType": "ethereum",
  "devdoc": {
    "methods": {
      "isOwner()": {
        "details": "Returns true if the caller is the current owner."
      },
      "owner()": {
        "details": "Returns the address of the current owner."
      },
      "renounceOwnership()": {
        "details": "Leaves the contract without owner. It will not be possible to call `onlyOwner` functions anymore. Can only be called by the current owner.     * NOTE: Renouncing ownership will leave the contract without an owner, thereby removing any functionality that is only available to the owner."
      },
      "transferOwnership(address)": {
        "details": "Transfers ownership of the contract to a new account (`newOwner`). Can only be called by the current owner."
      }
    }
  },
  "userdoc": {
    "methods": {}
  }
}