{
  "contractName": "ERC20Token",
  "abi": [
    {
      "inputs": [
        {
          "internalType": "address",
          "name": "",
          "type": "address"
        },
        {
          "internalType": "address",
          "name": "",
          "type": "address"
        }
      ],
      "name": "allowance",
      "outputs": [
        {
          "internalType": "uint256",
          "name": "",
          "type": "uint256"
        }
      ],
      "stateMutability": "nonpayable",
      "type": "function"
    },
    {
      "inputs": [
        {
          "internalType": "address",
          "name": "",
          "type": "address"
        }
      ],
      "name": "balanceOf",
      "outputs": [
        {
          "internalType": "uint256",
          "name": "",
          "type": "uint256"
        }
      ],
      "stateMutability": "view",
      "type": "function"
    },
    {
      "inputs": [
        {
          "internalType": "address",
          "name": "",
          "type": "address"
        },
        {
          "internalType": "address",
          "name": "",
          "type": "address"
        },
        {
          "internalType": "uint256",
          "name": "",
          "type": "uint256"
        }
      ],
      "name": "transferFrom",
      "outputs": [
        {
          "internalType": "bool",
          "name": "",
          "type": "bool"
        }
      ],
      "stateMutability": "nonpayable",
      "type": "function"
    }
  ],
  "bytecode": "0x608060405234801561001057600080fd5b506101ea806100206000396000f3fe608060405234801561001057600080fd5b50600436106100415760003560e01c806323b872dd1461004657806370a08231146100cc578063dd62ed3e14610124575b600080fd5b6100b26004803603606081101561005c57600080fd5b81019080803573ffffffffffffffffffffffffffffffffffffffff169060200190929190803573ffffffffffffffffffffffffffffffffffffffff1690602001909291908035906020019092919050505061019c565b604051808215151515815260200191505060405180910390f35b61010e600480360360208110156100e257600080fd5b81019080803573ffffffffffffffffffffffffffffffffffffffff1690602001909291905050506101a5565b6040518082815260200191505060405180910390f35b6101866004803603604081101561013a57600080fd5b81019080803573ffffffffffffffffffffffffffffffffffffffff169060200190929190803573ffffffffffffffffffffffffffffffffffffffff1690602001909291905050506101ac565b6040518082815260200191505060405180910390f35b60009392505050565b6000919050565b60009291505056fea2646970667358221220d565295cc6cfa4a37dd07fac2de6b4ec06e1f8e66f5ff0165abcdc01a01d1b4864736f6c63430006030033",
  "source": "pragma solidity ^0.6.3;\n\n// import \"openzeppelin-solidity/contracts/ownership/Ownable.sol\";\nimport \"../node_modules/openzeppelin-solidity/contracts/ownership/Ownable.sol\";\n\ncontract AcctCont {\n    function isDevAuthorized(address, address) public returns (bool) {}\n}\n\ncontract ERC20Token {\n  function allowance(address, address) public returns (uint256) {}\n  function balanceOf(address) public view returns (uint256) {}\n  function transferFrom(address, address, uint) public returns (bool) {}\n}\n\ncontract Wallets is Ownable {\n\n    AcctCont ac; // Haven Account Contract (ac)\n    ERC20Token kc; // Kudos contract (kc)\n    uint256 contKudosBal; // Kudos held by contract\n    \n    // The address of the Natural Rights Server\n    address public naturalRightsAddress;\n\n    // The address of the Account Contract\n    address public accountContractAddress;\n    \n    // The address of the Kudos Contract\n    address public kudosContractAddress;\n    \n    constructor(address acctContAddr, address kudosContAddr) public {\n        ac = AcctCont(acctContAddr);\n        kc = ERC20Token(kudosContAddr);\n    }\n\n    /// @dev Access modifier for NR-only functionality\n    modifier onlyNR() {\n        require(msg.sender == naturalRightsAddress);\n        _;\n    }\n\n    struct walletStruct {\n        uint256 kudosBalance; // Kudos balance\n    }\n\n    mapping (address => walletStruct) wallet; // natural rights Haven ID hash to public identifiers\n\n    // Only contract owner may change Natural Rights Server\n    function setNaturalRightsServer(address _newNaturalRights) public onlyOwner returns(bool success) {\n        require(_newNaturalRights != address(0));\n        naturalRightsAddress = _newNaturalRights;\n        return true;\n    }\n\n    // Only contract owner may change Account Contract Address\n    function setAccountContract(address _newAcctContAddr) public onlyOwner returns(bool success) {\n        require(_newAcctContAddr != address(0));\n        ac = AcctCont(_newAcctContAddr);\n        return true;\n    }\n    \n    // Only contract owner may change Kudos Contract Address\n    function addKudosContract(address _newKudosContAddr) public onlyOwner returns(bool success) {\n        require(_newKudosContAddr != address(0));\n        kc = ERC20Token(_newKudosContAddr);\n        return true;\n    }\n\n    // Is msg.sender authorized to sign for the account?\n    function isDevAuthorized(address _acctAddr) public returns(bool isIndeed) {\n        return ac.isDevAuthorized(_acctAddr, msg.sender);\n    }\n    \n    //\n    function newWallet(address _acctAddr) public onlyNR returns(bool success) {\n        wallet[_acctAddr] = walletStruct(0);\n        return true;\n    }\n    \n    // Add kudos from account\n    function addKudos(address _acctAddr, uint256 value) public returns(bool success) {\n        require(isDevAuthorized(_acctAddr), \"msg.sender not authorized for account\");\n        require(kc.balanceOf(_acctAddr) >= value, \"not enough tokens in sender's balance\");\n        require(kc.allowance(_acctAddr, address(this)) >= value, \"sender has not enough allowance\");\n        \n        kc.transferFrom(_acctAddr, address(this), value);\n        \n        wallet[_acctAddr].kudosBalance += value;\n        contKudosBal += value;\n        return true;\n    }\n    \n    function getContractBalance() public view returns(uint256 value) {\n        return contKudosBal;\n    }\n}\n",
  "sourcePath": "/home/charles/Projects/gitlab/haven-truffle/contracts/Wallets.sol",
  "compiler": {
    "name": "solc",
    "version": "0.6.3+commit.8dda9521.Emscripten.clang"
  },
  "schemaVersion": "3.0.23",
  "updatedAt": "2020-02-25T02:29:10.640Z",
  "devdoc": {
    "methods": {}
  },
  "userdoc": {
    "methods": {}
  }
}