{
  "contractName": "Havens",
  "abi": [
    {
      "inputs": [
        {
          "internalType": "address",
          "name": "acctContAddr",
          "type": "address"
        }
      ],
      "stateMutability": "nonpayable",
      "type": "constructor"
    },
    {
      "anonymous": false,
      "inputs": [
        {
          "indexed": true,
          "internalType": "address",
          "name": "previousOwner",
          "type": "address"
        },
        {
          "indexed": true,
          "internalType": "address",
          "name": "newOwner",
          "type": "address"
        }
      ],
      "name": "OwnershipTransferred",
      "type": "event"
    },
    {
      "inputs": [],
      "name": "accountContractAddress",
      "outputs": [
        {
          "internalType": "address",
          "name": "",
          "type": "address"
        }
      ],
      "stateMutability": "view",
      "type": "function",
      "constant": true
    },
    {
      "inputs": [
        {
          "internalType": "uint256",
          "name": "",
          "type": "uint256"
        }
      ],
      "name": "havenList",
      "outputs": [
        {
          "internalType": "uint256",
          "name": "",
          "type": "uint256"
        }
      ],
      "stateMutability": "view",
      "type": "function",
      "constant": true
    },
    {
      "inputs": [
        {
          "internalType": "uint256",
          "name": "",
          "type": "uint256"
        }
      ],
      "name": "havenNameTransferList",
      "outputs": [
        {
          "internalType": "uint256",
          "name": "",
          "type": "uint256"
        }
      ],
      "stateMutability": "view",
      "type": "function",
      "constant": true
    },
    {
      "inputs": [],
      "name": "isOwner",
      "outputs": [
        {
          "internalType": "bool",
          "name": "",
          "type": "bool"
        }
      ],
      "stateMutability": "view",
      "type": "function",
      "constant": true
    },
    {
      "inputs": [],
      "name": "naturalRightsAddress",
      "outputs": [
        {
          "internalType": "address",
          "name": "",
          "type": "address"
        }
      ],
      "stateMutability": "view",
      "type": "function",
      "constant": true
    },
    {
      "inputs": [],
      "name": "owner",
      "outputs": [
        {
          "internalType": "address",
          "name": "",
          "type": "address"
        }
      ],
      "stateMutability": "view",
      "type": "function",
      "constant": true
    },
    {
      "inputs": [],
      "name": "renounceOwnership",
      "outputs": [],
      "stateMutability": "nonpayable",
      "type": "function"
    },
    {
      "inputs": [
        {
          "internalType": "address",
          "name": "newOwner",
          "type": "address"
        }
      ],
      "name": "transferOwnership",
      "outputs": [],
      "stateMutability": "nonpayable",
      "type": "function"
    },
    {
      "inputs": [
        {
          "internalType": "address",
          "name": "_newNaturalRights",
          "type": "address"
        }
      ],
      "name": "setNaturalRightsServer",
      "outputs": [
        {
          "internalType": "bool",
          "name": "success",
          "type": "bool"
        }
      ],
      "stateMutability": "nonpayable",
      "type": "function"
    },
    {
      "inputs": [
        {
          "internalType": "address",
          "name": "_newAcctContAddr",
          "type": "address"
        }
      ],
      "name": "setAccountContract",
      "outputs": [
        {
          "internalType": "bool",
          "name": "success",
          "type": "bool"
        }
      ],
      "stateMutability": "nonpayable",
      "type": "function"
    },
    {
      "inputs": [
        {
          "internalType": "string",
          "name": "_naturalRightsId",
          "type": "string"
        },
        {
          "internalType": "address",
          "name": "_acctAddr",
          "type": "address"
        }
      ],
      "name": "addHaven",
      "outputs": [
        {
          "internalType": "bool",
          "name": "success",
          "type": "bool"
        }
      ],
      "stateMutability": "nonpayable",
      "type": "function"
    },
    {
      "inputs": [
        {
          "internalType": "string",
          "name": "_naturalRightsId",
          "type": "string"
        }
      ],
      "name": "isHavenOwned",
      "outputs": [
        {
          "internalType": "bool",
          "name": "isIndeed",
          "type": "bool"
        }
      ],
      "stateMutability": "view",
      "type": "function",
      "constant": true
    },
    {
      "inputs": [
        {
          "internalType": "string",
          "name": "_naturalRightsId",
          "type": "string"
        }
      ],
      "name": "isHavenSet",
      "outputs": [
        {
          "internalType": "bool",
          "name": "isIndeed",
          "type": "bool"
        }
      ],
      "stateMutability": "view",
      "type": "function",
      "constant": true
    },
    {
      "inputs": [
        {
          "internalType": "string",
          "name": "_naturalRightsId",
          "type": "string"
        }
      ],
      "name": "havenOwnerAddress",
      "outputs": [
        {
          "internalType": "address",
          "name": "loomAddress",
          "type": "address"
        }
      ],
      "stateMutability": "view",
      "type": "function",
      "constant": true
    },
    {
      "inputs": [],
      "name": "getHavenCount",
      "outputs": [
        {
          "internalType": "uint256",
          "name": "havenCount",
          "type": "uint256"
        }
      ],
      "stateMutability": "view",
      "type": "function",
      "constant": true
    },
    {
      "inputs": [
        {
          "internalType": "string",
          "name": "_havenName",
          "type": "string"
        }
      ],
      "name": "isHavenName",
      "outputs": [
        {
          "internalType": "bool",
          "name": "isIndeed",
          "type": "bool"
        }
      ],
      "stateMutability": "view",
      "type": "function",
      "constant": true
    },
    {
      "inputs": [
        {
          "internalType": "string",
          "name": "_naturalRightsId",
          "type": "string"
        }
      ],
      "name": "getHavenName",
      "outputs": [
        {
          "internalType": "string",
          "name": "",
          "type": "string"
        }
      ],
      "stateMutability": "view",
      "type": "function",
      "constant": true
    },
    {
      "inputs": [
        {
          "internalType": "address",
          "name": "_acctAddr",
          "type": "address"
        }
      ],
      "name": "isDevAuthorized",
      "outputs": [
        {
          "internalType": "bool",
          "name": "isIndeed",
          "type": "bool"
        }
      ],
      "stateMutability": "nonpayable",
      "type": "function"
    },
    {
      "inputs": [
        {
          "internalType": "string",
          "name": "_naturalRightsId",
          "type": "string"
        }
      ],
      "name": "isDevHavenAuthorized",
      "outputs": [
        {
          "internalType": "bool",
          "name": "isIndeed",
          "type": "bool"
        }
      ],
      "stateMutability": "nonpayable",
      "type": "function"
    },
    {
      "inputs": [
        {
          "internalType": "string",
          "name": "_naturalRightsId",
          "type": "string"
        },
        {
          "internalType": "string",
          "name": "_havenName",
          "type": "string"
        },
        {
          "internalType": "bool",
          "name": "_isPrivate",
          "type": "bool"
        }
      ],
      "name": "initHaven",
      "outputs": [
        {
          "internalType": "bool",
          "name": "success",
          "type": "bool"
        }
      ],
      "stateMutability": "nonpayable",
      "type": "function"
    },
    {
      "inputs": [
        {
          "internalType": "string",
          "name": "_naturalRightsId",
          "type": "string"
        },
        {
          "internalType": "string",
          "name": "_newHavenName",
          "type": "string"
        }
      ],
      "name": "updateHavenName",
      "outputs": [
        {
          "internalType": "bool",
          "name": "success",
          "type": "bool"
        }
      ],
      "stateMutability": "nonpayable",
      "type": "function"
    },
    {
      "inputs": [
        {
          "internalType": "string",
          "name": "_fromHaven",
          "type": "string"
        },
        {
          "internalType": "string",
          "name": "_toHaven",
          "type": "string"
        },
        {
          "internalType": "string",
          "name": "_expectedHavenName",
          "type": "string"
        }
      ],
      "name": "initTransferHavenName",
      "outputs": [
        {
          "internalType": "bool",
          "name": "success",
          "type": "bool"
        }
      ],
      "stateMutability": "nonpayable",
      "type": "function"
    },
    {
      "inputs": [
        {
          "internalType": "string",
          "name": "_toHaven",
          "type": "string"
        },
        {
          "internalType": "string",
          "name": "_expectedHavenName",
          "type": "string"
        }
      ],
      "name": "confirmTransferHavenName",
      "outputs": [
        {
          "internalType": "bool",
          "name": "success",
          "type": "bool"
        }
      ],
      "stateMutability": "nonpayable",
      "type": "function"
    },
    {
      "inputs": [
        {
          "internalType": "string",
          "name": "_naturalRightsId",
          "type": "string"
        }
      ],
      "name": "deleteHaven",
      "outputs": [
        {
          "internalType": "bool",
          "name": "success",
          "type": "bool"
        }
      ],
      "stateMutability": "nonpayable",
      "type": "function"
    }
  ],
  "bytecode": "0x60806040523480156200001157600080fd5b506040516200329338038062003293833981810160405260208110156200003757600080fd5b810190808051906020019092919050505060006200005a6200014060201b60201c565b9050806000806101000a81548173ffffffffffffffffffffffffffffffffffffffff021916908373ffffffffffffffffffffffffffffffffffffffff1602179055508073ffffffffffffffffffffffffffffffffffffffff16600073ffffffffffffffffffffffffffffffffffffffff167f8be0079c531659141344cd1fd0a4f28419497f9722a3daafe3b4186f6b6457e060405160405180910390a35080600160006101000a81548173ffffffffffffffffffffffffffffffffffffffff021916908373ffffffffffffffffffffffffffffffffffffffff1602179055505062000148565b600033905090565b61313b80620001586000396000f3fe608060405234801561001057600080fd5b50600436106101585760003560e01c806385ccd035116100c3578063ba78ccd31161007c578063ba78ccd314610cd3578063d7217ce914610ed4578063dfa1544e14610fa7578063f2fde38b1461107a578063f68553ef146110be578063faeac1fb1461119157610158565b806385ccd035146108cf5780638da5cb5b1461092b5780638f32d59b146109755780639330e57614610997578063a836761914610a6a578063b01b497714610be057610158565b806347d94e551161011557806347d94e55146105015780634de208cb1461055d5780634fb4a8c8146106c7578063589c1bb4146107115780636f0c07301461075b578063715018a6146108c557610158565b8063099785df1461015d5780631aae6c7e146102305780631bebfee3146102725780632d325cc41461036d57806343186efd146104a157806344c14217146104e3575b600080fd5b6102166004803603602081101561017357600080fd5b810190808035906020019064010000000081111561019057600080fd5b8201836020820111156101a257600080fd5b803590602001918460018302840111640100000000831117156101c457600080fd5b91908080601f016020809104026020016040519081016040528093929190818152602001838380828437600081840152601f19601f8201169050808301925050505050505091929192905050506111ed565b604051808215151515815260200191505060405180910390f35b61025c6004803603602081101561024657600080fd5b810190808035906020019092919050505061122d565b6040518082815260200191505060405180910390f35b61032b6004803603602081101561028857600080fd5b81019080803590602001906401000000008111156102a557600080fd5b8201836020820111156102b757600080fd5b803590602001918460018302840111640100000000831117156102d957600080fd5b91908080601f016020809104026020016040519081016040528093929190818152602001838380828437600081840152601f19601f82011690508083019250505050505050919291929050505061124e565b604051808273ffffffffffffffffffffffffffffffffffffffff1673ffffffffffffffffffffffffffffffffffffffff16815260200191505060405180910390f35b6104266004803603602081101561038357600080fd5b81019080803590602001906401000000008111156103a057600080fd5b8201836020820111156103b257600080fd5b803590602001918460018302840111640100000000831117156103d457600080fd5b91908080601f016020809104026020016040519081016040528093929190818152602001838380828437600081840152601f19601f82011690508083019250505050505050919291929050505061129a565b6040518080602001828103825283818151815260200191508051906020019080838360005b8381101561046657808201518184015260208101905061044b565b50505050905090810190601f1680156104935780820380516001836020036101000a031916815260200191505b509250505060405180910390f35b6104cd600480360360208110156104b757600080fd5b81019080803590602001909291905050506113cd565b6040518082815260200191505060405180910390f35b6104eb6113ee565b6040518082815260200191505060405180910390f35b6105436004803603602081101561051757600080fd5b81019080803573ffffffffffffffffffffffffffffffffffffffff1690602001909291905050506113fb565b604051808215151515815260200191505060405180910390f35b6106ad6004803603604081101561057357600080fd5b810190808035906020019064010000000081111561059057600080fd5b8201836020820111156105a257600080fd5b803590602001918460018302840111640100000000831117156105c457600080fd5b91908080601f016020809104026020016040519081016040528093929190818152602001838380828437600081840152601f19601f8201169050808301925050505050505091929192908035906020019064010000000081111561062757600080fd5b82018360208201111561063957600080fd5b8035906020019184600183028401116401000000008311171561065b57600080fd5b91908080601f016020809104026020016040519081016040528093929190818152602001838380828437600081840152601f19601f8201169050808301925050505050505091929192905050506114fb565b604051808215151515815260200191505060405180910390f35b6106cf61177e565b604051808273ffffffffffffffffffffffffffffffffffffffff1673ffffffffffffffffffffffffffffffffffffffff16815260200191505060405180910390f35b6107196117a4565b604051808273ffffffffffffffffffffffffffffffffffffffff1673ffffffffffffffffffffffffffffffffffffffff16815260200191505060405180910390f35b6108ab6004803603604081101561077157600080fd5b810190808035906020019064010000000081111561078e57600080fd5b8201836020820111156107a057600080fd5b803590602001918460018302840111640100000000831117156107c257600080fd5b91908080601f016020809104026020016040519081016040528093929190818152602001838380828437600081840152601f19601f8201169050808301925050505050505091929192908035906020019064010000000081111561082557600080fd5b82018360208201111561083757600080fd5b8035906020019184600183028401116401000000008311171561085957600080fd5b91908080601f016020809104026020016040519081016040528093929190818152602001838380828437600081840152601f19601f8201169050808301925050505050505091929192905050506117ca565b604051808215151515815260200191505060405180910390f35b6108cd611de0565b005b610911600480360360208110156108e557600080fd5b81019080803573ffffffffffffffffffffffffffffffffffffffff169060200190929190505050611f19565b604051808215151515815260200191505060405180910390f35b610933612019565b604051808273ffffffffffffffffffffffffffffffffffffffff1673ffffffffffffffffffffffffffffffffffffffff16815260200191505060405180910390f35b61097d612042565b604051808215151515815260200191505060405180910390f35b610a50600480360360208110156109ad57600080fd5b81019080803590602001906401000000008111156109ca57600080fd5b8201836020820111156109dc57600080fd5b803590602001918460018302840111640100000000831117156109fe57600080fd5b91908080601f016020809104026020016040519081016040528093929190818152602001838380828437600081840152601f19601f8201169050808301925050505050505091929192905050506120a0565b604051808215151515815260200191505060405180910390f35b610bc660048036036060811015610a8057600080fd5b8101908080359060200190640100000000811115610a9d57600080fd5b820183602082011115610aaf57600080fd5b80359060200191846001830284011164010000000083111715610ad157600080fd5b91908080601f016020809104026020016040519081016040528093929190818152602001838380828437600081840152601f19601f82011690508083019250505050505050919291929080359060200190640100000000811115610b3457600080fd5b820183602082011115610b4657600080fd5b80359060200191846001830284011164010000000083111715610b6857600080fd5b91908080601f016020809104026020016040519081016040528093929190818152602001838380828437600081840152601f19601f820116905080830192505050505050509192919290803515159060200190929190505050612100565b604051808215151515815260200191505060405180910390f35b610cb960048036036040811015610bf657600080fd5b8101908080359060200190640100000000811115610c1357600080fd5b820183602082011115610c2557600080fd5b80359060200191846001830284011164010000000083111715610c4757600080fd5b91908080601f016020809104026020016040519081016040528093929190818152602001838380828437600081840152601f19601f820116905080830192505050505050509192919290803573ffffffffffffffffffffffffffffffffffffffff169060200190929190505050612429565b604051808215151515815260200191505060405180910390f35b610eba60048036036060811015610ce957600080fd5b8101908080359060200190640100000000811115610d0657600080fd5b820183602082011115610d1857600080fd5b80359060200191846001830284011164010000000083111715610d3a57600080fd5b91908080601f016020809104026020016040519081016040528093929190818152602001838380828437600081840152601f19601f82011690508083019250505050505050919291929080359060200190640100000000811115610d9d57600080fd5b820183602082011115610daf57600080fd5b80359060200191846001830284011164010000000083111715610dd157600080fd5b91908080601f016020809104026020016040519081016040528093929190818152602001838380828437600081840152601f19601f82011690508083019250505050505050919291929080359060200190640100000000811115610e3457600080fd5b820183602082011115610e4657600080fd5b80359060200191846001830284011164010000000083111715610e6857600080fd5b91908080601f016020809104026020016040519081016040528093929190818152602001838380828437600081840152601f19601f8201169050808301925050505050505091929192905050506124f1565b604051808215151515815260200191505060405180910390f35b610f8d60048036036020811015610eea57600080fd5b8101908080359060200190640100000000811115610f0757600080fd5b820183602082011115610f1957600080fd5b80359060200191846001830284011164010000000083111715610f3b57600080fd5b91908080601f016020809104026020016040519081016040528093929190818152602001838380828437600081840152601f19601f8201169050808301925050505050505091929192905050506126f0565b604051808215151515815260200191505060405180910390f35b61106060048036036020811015610fbd57600080fd5b8101908080359060200190640100000000811115610fda57600080fd5b820183602082011115610fec57600080fd5b8035906020019184600183028401116401000000008311171561100e57600080fd5b91908080601f016020809104026020016040519081016040528093929190818152602001838380828437600081840152601f19601f82011690508083019250505050505050919291929050505061293c565b604051808215151515815260200191505060405180910390f35b6110bc6004803603602081101561109057600080fd5b81019080803573ffffffffffffffffffffffffffffffffffffffff169060200190929190505050612a97565b005b611177600480360360208110156110d457600080fd5b81019080803590602001906401000000008111156110f157600080fd5b82018360208201111561110357600080fd5b8035906020019184600183028401116401000000008311171561112557600080fd5b91908080601f016020809104026020016040519081016040528093929190818152602001838380828437600081840152601f19601f820116905080830192505050505050509192919290505050612b1d565b604051808215151515815260200191505060405180910390f35b6111d3600480360360208110156111a757600080fd5b81019080803573ffffffffffffffffffffffffffffffffffffffff169060200190929190505050612ba9565b604051808215151515815260200191505060405180910390f35b600080828051906020012060001c90506000600660008381526020019081526020016000205414611222576001915050611228565b60009150505b919050565b6008818154811061123a57fe5b906000526020600020016000915090505481565b600080828051906020012060001c90506005600082815260200190815260200160002060009054906101000a900473ffffffffffffffffffffffffffffffffffffffff16915050919050565b6060600115156112a9836120a0565b15151415611377576000828051906020012060001c9050600460008281526020019081526020016000206001018054600181600116156101000203166002900480601f01602080910402602001604051908101604052809291908181526020018280546001816001161561010002031660029004801561136a5780601f1061133f5761010080835404028352916020019161136a565b820191906000526020600020905b81548152906001019060200180831161134d57829003601f168201915b50505050509150506113c8565b6040517f08c379a0000000000000000000000000000000000000000000000000000000008152600401808060200182810382526033815260200180612fdd6033913960400191505060405180910390fd5b919050565b600a81815481106113da57fe5b906000526020600020016000915090505481565b6000600880549050905090565b6000611405612042565b611477576040517f08c379a00000000000000000000000000000000000000000000000000000000081526004018080602001828103825260208152602001807f4f776e61626c653a2063616c6c6572206973206e6f7420746865206f776e657281525060200191505060405180910390fd5b600073ffffffffffffffffffffffffffffffffffffffff168273ffffffffffffffffffffffffffffffffffffffff1614156114b157600080fd5b81600160006101000a81548173ffffffffffffffffffffffffffffffffffffffff021916908373ffffffffffffffffffffffffffffffffffffffff16021790555060019050919050565b6000611506836120a0565b611578576040517f08c379a000000000000000000000000000000000000000000000000000000000815260040180806020018281038252601e8152602001807f486176656e20686173206e6f74206265656e207365742062792075736572000081525060200191505060405180910390fd5b6115818361293c565b6115d6576040517f08c379a00000000000000000000000000000000000000000000000000000000081526004018080602001828103825260238152602001806130b66023913960400191505060405180910390fd5b6115df826111ed565b15611652576040517f08c379a00000000000000000000000000000000000000000000000000000000081526004018080602001828103825260188152602001807f486176656e206e616d6520616c72656164792074616b656e000000000000000081525060200191505060405180910390fd5b6000828051906020012060001c90506000848051906020012060001c905060006004600083815260200190815260200160002060010160405180828054600181600116156101000203166002900480156116e35780601f106116c15761010080835404028352918201916116e3565b820191906000526020600020905b8154815290600101906020018083116116cf575b5050915050604051809103902060001c90506004600083815260200190815260200160002060010160006117179190612e0e565b84600460008481526020019081526020016000206001019080519060200190611741929190612e56565b5060066000828152602001908152602001600020600090558160066000858152602001908152602001600020819055506001935050505092915050565b600260009054906101000a900473ffffffffffffffffffffffffffffffffffffffff1681565b600360009054906101000a900473ffffffffffffffffffffffffffffffffffffffff1681565b60006117d58361293c565b61182a576040517f08c379a00000000000000000000000000000000000000000000000000000000081526004018080602001828103825260238152602001806130b66023913960400191505060405180910390fd5b606060096000858051906020012060001c81526020019081526020016000206000018054600181600116156101000203166002900480601f0160208091040260200160405190810160405280929190818152602001828054600181600116156101000203166002900480156118e05780601f106118b5576101008083540402835291602001916118e0565b820191906000526020600020905b8154815290600101906020018083116118c357829003601f168201915b505050505090506118f0816120a0565b80156119015750611900846120a0565b5b611973576040517f08c379a000000000000000000000000000000000000000000000000000000000815260040180806020018281038252601f8152602001807f4f6e65206f7220626f746820486176656e7320646f206e6f742065786973740081525060200191505060405180910390fd5b6000848051906020012060001c90506000828051906020012060001c90508480519060200120600460008381526020019081526020016000206001016040518082805460018160011615610100020316600290048015611a0a5780601f106119e8576101008083540402835291820191611a0a565b820191906000526020600020905b8154815290600101906020018083116119f6575b5050915050604051809103902014611a6d576040517f08c379a00000000000000000000000000000000000000000000000000000000081526004018080602001828103825260528152602001806130646052913960600191505060405180910390fd5b600460008381526020019081526020016000206001016040518082805460018160011615610100020316600290048015611ade5780601f10611abc576101008083540402835291820191611ade565b820191906000526020600020905b815481529060010190602001808311611aca575b50509150506040518091039020600960008481526020019081526020016000206001016040518082805460018160011615610100020316600290048015611b5c5780601f10611b3a576101008083540402835291820191611b5c565b820191906000526020600020905b815481529060010190602001808311611b48575b5050915050604051809103902014611bbf576040517f08c379a00000000000000000000000000000000000000000000000000000000081526004018080602001828103825260548152602001806130106054913960600191505060405180910390fd5b6000858051906020012060001c90506000600460008581526020019081526020016000206001016040518082805460018160011615610100020316600290048015611c415780601f10611c1f576101008083540402835291820191611c41565b820191906000526020600020905b815481529060010190602001808311611c2d575b5050915050604051809103902060001c905082600660008481526020019081526020016000208190555083600660008381526020019081526020016000208190555060046000858152602001908152602001600020600101600460008581526020019081526020016000206001019080546001816001161561010002031660029004611cce929190612ed6565b5086600460008681526020019081526020016000206001019080519060200190611cf9929190612e56565b506000600960008681526020019081526020016000206002015490506009600086815260200190815260200160002060008082016000611d399190612e0e565b600182016000611d499190612e0e565b600282016000905550506000600a6001600a805490500381548110611d6a57fe5b9060005260206000200154905080600a8381548110611d8557fe5b9060005260206000200181905550816009600083815260200190815260200160002060020181905550600a805480611db957fe5b60019003818190600052602060002001600090559055600197505050505050505092915050565b611de8612042565b611e5a576040517f08c379a00000000000000000000000000000000000000000000000000000000081526004018080602001828103825260208152602001807f4f776e61626c653a2063616c6c6572206973206e6f7420746865206f776e657281525060200191505060405180910390fd5b600073ffffffffffffffffffffffffffffffffffffffff166000809054906101000a900473ffffffffffffffffffffffffffffffffffffffff1673ffffffffffffffffffffffffffffffffffffffff167f8be0079c531659141344cd1fd0a4f28419497f9722a3daafe3b4186f6b6457e060405160405180910390a360008060006101000a81548173ffffffffffffffffffffffffffffffffffffffff021916908373ffffffffffffffffffffffffffffffffffffffff160217905550565b6000611f23612042565b611f95576040517f08c379a00000000000000000000000000000000000000000000000000000000081526004018080602001828103825260208152602001807f4f776e61626c653a2063616c6c6572206973206e6f7420746865206f776e657281525060200191505060405180910390fd5b600073ffffffffffffffffffffffffffffffffffffffff168273ffffffffffffffffffffffffffffffffffffffff161415611fcf57600080fd5b81600260006101000a81548173ffffffffffffffffffffffffffffffffffffffff021916908373ffffffffffffffffffffffffffffffffffffffff16021790555060019050919050565b60008060009054906101000a900473ffffffffffffffffffffffffffffffffffffffff16905090565b60008060009054906101000a900473ffffffffffffffffffffffffffffffffffffffff1673ffffffffffffffffffffffffffffffffffffffff16612084612cc2565b73ffffffffffffffffffffffffffffffffffffffff1614905090565b60008060088054905014156120b857600090506120fb565b6000828051906020012060001c90508060086004600084815260200190815260200160002060030154815481106120eb57fe5b9060005260206000200154149150505b919050565b600061210b84612b1d565b612160576040517f08c379a0000000000000000000000000000000000000000000000000000000008152600401808060200182810382526034815260200180612f836034913960400191505060405180910390fd5b6121698461293c565b6121be576040517f08c379a00000000000000000000000000000000000000000000000000000000081526004018080602001828103825260238152602001806130b66023913960400191505060405180910390fd5b6121c7846120a0565b1561223a576040517f08c379a000000000000000000000000000000000000000000000000000000000815260040180806020018281038252601a8152602001807f486176656e2068617320616c7265616479206265656e2073657400000000000081525060200191505060405180910390fd5b612243836111ed565b156122b6576040517f08c379a00000000000000000000000000000000000000000000000000000000081526004018080602001828103825260188152602001807f486176656e206e616d6520616c72656164792074616b656e000000000000000081525060200191505060405180910390fd5b6000848051906020012060001c905060006005600083815260200190815260200160002060009054906101000a900473ffffffffffffffffffffffffffffffffffffffff1690506000858051906020012060001c905085600460008581526020019081526020016000206001019080519060200190612336929190612e56565b50816004600085815260200190815260200160002060000160006101000a81548173ffffffffffffffffffffffffffffffffffffffff021916908373ffffffffffffffffffffffffffffffffffffffff160217905550846004600085815260200190815260200160002060020160006101000a81548160ff02191690831515021790555060088054905060046000858152602001908152602001600020600301819055506008839080600181540180825580915050600190039060005260206000200160009091909190915055826006600083815260200190815260200160002081905550600193505050509392505050565b6000600260009054906101000a900473ffffffffffffffffffffffffffffffffffffffff1673ffffffffffffffffffffffffffffffffffffffff163373ffffffffffffffffffffffffffffffffffffffff161461248557600080fd5b6000838051906020012060001c9050826005600083815260200190815260200160002060006101000a81548173ffffffffffffffffffffffffffffffffffffffff021916908373ffffffffffffffffffffffffffffffffffffffff160217905550600191505092915050565b60006124fc846120a0565b801561250d575061250c836120a0565b5b61257f576040517f08c379a000000000000000000000000000000000000000000000000000000000815260040180806020018281038252601f8152602001807f4f6e65206f7220626f746820486176656e7320646f206e6f742065786973740081525060200191505060405180910390fd5b6125888461293c565b6125dd576040517f08c379a00000000000000000000000000000000000000000000000000000000081526004018080602001828103825260238152602001806130b66023913960400191505060405180910390fd5b818051906020012060001c6125f18461129a565b8051906020012060001c14612651576040517f08c379a000000000000000000000000000000000000000000000000000000000815260040180806020018281038252602d8152602001806130d9602d913960400191505060405180910390fd5b6000848051906020012060001c90506000848051906020012060001c905085600960008381526020019081526020016000206000019080519060200190612699929190612e56565b50600a805490506009600083815260200190815260200160002060020181905550600a8290806001815401808255809150506001900390600052602060002001600090919091909150556001925050509392505050565b60006126fb8261293c565b612750576040517f08c379a00000000000000000000000000000000000000000000000000000000081526004018080602001828103825260238152602001806130b66023913960400191505060405180910390fd5b612759826120a0565b6127cb576040517f08c379a00000000000000000000000000000000000000000000000000000000081526004018080602001828103825260148152602001807f486176656e20646f6573206e6f7420657869737400000000000000000000000081525060200191505060405180910390fd5b6000828051906020012060001c9050600060046000838152602001908152602001600020600301549050600060086001600880549050038154811061280c57fe5b90600052602060002001549050806008838154811061282757fe5b9060005260206000200181905550816004600083815260200190815260200160002060030181905550600880548061285b57fe5b6001900381819060005260206000200160009055905560006004600085815260200190815260200160002060010160405180828054600181600116156101000203166002900480156128e45780601f106128c25761010080835404028352918201916128e4565b820191906000526020600020905b8154815290600101906020018083116128d0575b5050915050604051809103902060001c9050600660008281526020019081526020016000206000905560046000858152602001908152602001600020600101600061292f9190612e0e565b6001945050505050919050565b600080828051906020012060001c9050600160009054906101000a900473ffffffffffffffffffffffffffffffffffffffff1673ffffffffffffffffffffffffffffffffffffffff1663e56f9af86005600084815260200190815260200160002060009054906101000a900473ffffffffffffffffffffffffffffffffffffffff16336040518363ffffffff1660e01b8152600401808373ffffffffffffffffffffffffffffffffffffffff1673ffffffffffffffffffffffffffffffffffffffff1681526020018273ffffffffffffffffffffffffffffffffffffffff1673ffffffffffffffffffffffffffffffffffffffff16815260200192505050602060405180830381600087803b158015612a5457600080fd5b505af1158015612a68573d6000803e3d6000fd5b505050506040513d6020811015612a7e57600080fd5b8101908080519060200190929190505050915050919050565b612a9f612042565b612b11576040517f08c379a00000000000000000000000000000000000000000000000000000000081526004018080602001828103825260208152602001807f4f776e61626c653a2063616c6c6572206973206e6f7420746865206f776e657281525060200191505060405180910390fd5b612b1a81612cca565b50565b600080828051906020012060001c9050600073ffffffffffffffffffffffffffffffffffffffff166005600083815260200190815260200160002060009054906101000a900473ffffffffffffffffffffffffffffffffffffffff1673ffffffffffffffffffffffffffffffffffffffff1614612b9e576001915050612ba4565b60009150505b919050565b6000600160009054906101000a900473ffffffffffffffffffffffffffffffffffffffff1673ffffffffffffffffffffffffffffffffffffffff1663e56f9af883336040518363ffffffff1660e01b8152600401808373ffffffffffffffffffffffffffffffffffffffff1673ffffffffffffffffffffffffffffffffffffffff1681526020018273ffffffffffffffffffffffffffffffffffffffff1673ffffffffffffffffffffffffffffffffffffffff16815260200192505050602060405180830381600087803b158015612c8057600080fd5b505af1158015612c94573d6000803e3d6000fd5b505050506040513d6020811015612caa57600080fd5b81019080805190602001909291905050509050919050565b600033905090565b600073ffffffffffffffffffffffffffffffffffffffff168173ffffffffffffffffffffffffffffffffffffffff161415612d50576040517f08c379a0000000000000000000000000000000000000000000000000000000008152600401808060200182810382526026815260200180612fb76026913960400191505060405180910390fd5b8073ffffffffffffffffffffffffffffffffffffffff166000809054906101000a900473ffffffffffffffffffffffffffffffffffffffff1673ffffffffffffffffffffffffffffffffffffffff167f8be0079c531659141344cd1fd0a4f28419497f9722a3daafe3b4186f6b6457e060405160405180910390a3806000806101000a81548173ffffffffffffffffffffffffffffffffffffffff021916908373ffffffffffffffffffffffffffffffffffffffff16021790555050565b50805460018160011615610100020316600290046000825580601f10612e345750612e53565b601f016020900490600052602060002090810190612e529190612f5d565b5b50565b828054600181600116156101000203166002900490600052602060002090601f016020900481019282601f10612e9757805160ff1916838001178555612ec5565b82800160010185558215612ec5579182015b82811115612ec4578251825591602001919060010190612ea9565b5b509050612ed29190612f5d565b5090565b828054600181600116156101000203166002900490600052602060002090601f016020900481019282601f10612f0f5780548555612f4c565b82800160010185558215612f4c57600052602060002091601f016020900482015b82811115612f4b578254825591600101919060010190612f30565b5b509050612f599190612f5d565b5090565b612f7f91905b80821115612f7b576000816000905550600101612f63565b5090565b9056fe486176656e204e61747572616c20526967687473204964206973206e6f74204f776e6564206279204c6f6f6d204163636f756e744f776e61626c653a206e6577206f776e657220697320746865207a65726f20616464726573734e61747572616c2052696768747320486176656e20496420646f6573206e6f74206d61746368206120486176656e204e616d65486176656e6e616d65206d69736d617463683a20636f6e6669726d657220686176656e4e616d6520646f6573206e6f74206d6174636820696e69746961746f727320657870656374656420686176656e4e616d65486176656e6e616d65206d69736d617463683a20636f6e6669726d6572206578706563746564486176656e4e616d6520646f6573206e6f74206d6174636820696e69746961746f7220686176656e4e616d656d73672e73656e646572206e6f7420617574686f72697a656420666f7220486176656e457870656374656420486176656e206e616d65206e6f7420657175616c20746f20746f486176656e206e616d65a2646970667358221220cc11c309118e07b74419800ddb13d6b5b79bce32eaf12de057181cd5bcd892f964736f6c63430006030033",
  "source": "pragma solidity ^0.6.3;\n\n// import \"openzeppelin-solidity/contracts/ownership/Ownable.sol\";\nimport \"../node_modules/openzeppelin-solidity/contracts/ownership/Ownable.sol\";\n\ncontract AcctCont {\n    function isDevAuthorized(address, address) public returns (bool) {}\n}\n\ncontract Havens is Ownable {\n\n    AcctCont ac;\n    \n    // The address of the Natural Rights Server Testing\n    address public naturalRightsAddress;\n\n    // The address of the Account Contract\n    address public accountContractAddress;\n\n    constructor(address acctContAddr) public {\n        ac = AcctCont(acctContAddr);\n    }\n\n    /// @dev Access modifier for NR-only functionality\n    modifier onlyNR() {\n        require(msg.sender == naturalRightsAddress);\n        _;\n    }\n\n    struct havenStruct {\n        address acctAddr; // Haven owner\n        string havenName; // Haven name\n        bool isPrivate; // Haven private bool\n        uint listPointer;\n    }\n    \n    struct havenNameTransfer {\n        string fromHaven;\n        string initExpectedHavenName;\n        uint listPointer;\n        // bool paymentMade\n    }\n\n    mapping (uint256 => havenStruct) haven; // natural rights Haven ID hash to public identifiers\n    mapping (uint256 => address) havenOwner; // natural rights Haven ID hash to Loom Account address of owner\n    mapping (uint256 => uint256) havenName; // maps haven name hash to natural rights haven id hash\n    \n    mapping (address => uint256[]) havensOwned; // maps Loom Account address to owned Haven natural rights ids \n    \n    uint256[] public havenList; // public Haven index\n    mapping (uint256 => havenNameTransfer) havenNameTransferQueue; // Queues Haven Name transfer from initiator (value) to comfirmer (key)\n    uint256[] public havenNameTransferList; // List of Haven name confirmers\n    \n    \n    // Only contract owner may change Natural Rights Server\n    function setNaturalRightsServer(address _newNaturalRights) public onlyOwner returns(bool success) {\n        require(_newNaturalRights != address(0));\n        naturalRightsAddress = _newNaturalRights;\n        return true;\n    }\n\n    // Only contract owner may change Account Contract Address\n    function setAccountContract(address _newAcctContAddr) public onlyOwner returns(bool success) {\n        require(_newAcctContAddr != address(0));\n        ac = AcctCont(_newAcctContAddr);\n        return true;\n    }\n    \n    // Only Natural Rights server may add havens\n    function addHaven(string memory _naturalRightsId, address _acctAddr) public onlyNR returns(bool success) {\n        uint256 naturalRightsIdHash = uint256(keccak256(bytes(_naturalRightsId)));\n        havenOwner[naturalRightsIdHash] = _acctAddr;\n        return true;\n    }\n    \n    // Is haven added by NR\n    function isHavenOwned(string memory _naturalRightsId) public view returns(bool isIndeed) {\n        uint256 naturalRightsIdHash = uint256(keccak256(bytes(_naturalRightsId)));\n        if(havenOwner[naturalRightsIdHash] != address(0)) {\n            return true;\n        }\n        return false;\n    }\n    \n    // Is haven active\n    function isHavenSet(string memory _naturalRightsId) public view returns(bool isIndeed) {\n        if(havenList.length == 0) return false;\n        uint256 naturalRightsIdHash = uint256(keccak256(bytes(_naturalRightsId)));\n        return (havenList[haven[naturalRightsIdHash].listPointer] == naturalRightsIdHash);\n    }\n    \n    // Loom address of Haven\n    function havenOwnerAddress(string memory _naturalRightsId) public view returns(address loomAddress) {\n        uint256 naturalRightsIdHash = uint256(keccak256(bytes(_naturalRightsId)));\n        return havenOwner[naturalRightsIdHash];\n    }\n\n    // Number of active havens\n    function getHavenCount() public view returns(uint havenCount) {\n        return havenList.length;\n    }\n    \n    function isHavenName(string memory _havenName) public view returns(bool isIndeed) {\n        uint256 havenNameHash = uint256(keccak256(bytes(_havenName)));\n        if(havenName[havenNameHash] != 0) {\n            return true;\n        } else {\n            return false;\n        }\n    }\n    \n    function getHavenName(string memory _naturalRightsId) public view returns(string memory) {\n        if(isHavenSet(_naturalRightsId) == true) {\n            uint256 naturalRightsIdHash = uint256(keccak256(bytes(_naturalRightsId)));\n            return haven[naturalRightsIdHash].havenName;\n        } \n        revert('Natural Rights Haven Id does not match a Haven Name');\n    }\n    \n    // Is msg.sender authorized to sign for the account?\n    function isDevAuthorized(address _acctAddr) public returns(bool isIndeed) {\n        return ac.isDevAuthorized(_acctAddr, msg.sender);\n    }\n    \n    // Is msg.sender authorized to sign for the Haven?\n    function isDevHavenAuthorized(string memory _naturalRightsId) public returns(bool isIndeed) {\n        uint256 naturalRightsIdHash = uint256(keccak256(bytes(_naturalRightsId)));\n        return ac.isDevAuthorized(havenOwner[naturalRightsIdHash], msg.sender);\n    }\n    \n    // haven initializes the public havens structs to become active\n    function initHaven(string memory _naturalRightsId, string memory _havenName, bool _isPrivate) public returns(bool success) {\n        require(isHavenOwned(_naturalRightsId), \"Haven Natural Rights Id is not Owned by Loom Account\");\n        require(isDevHavenAuthorized(_naturalRightsId), \"msg.sender not authorized for Haven\");\n        require(!isHavenSet(_naturalRightsId), \"Haven has already been set\");\n        require(!isHavenName(_havenName), \"Haven name already taken\");\n        uint256 naturalRightsIdHash = uint256(keccak256(bytes(_naturalRightsId)));\n        address havenOwnerAcctAddr = havenOwner[naturalRightsIdHash];\n        uint256 havenNameHash = uint256(keccak256(bytes(_havenName)));\n        \n        // Set Storage Values\n        haven[naturalRightsIdHash].havenName = _havenName;\n        haven[naturalRightsIdHash].acctAddr = havenOwnerAcctAddr;\n        haven[naturalRightsIdHash].isPrivate = _isPrivate;\n        haven[naturalRightsIdHash].listPointer = havenList.length;\n        havenList.push(naturalRightsIdHash);\n        havenName[havenNameHash] = naturalRightsIdHash;\n        return true;\n    }\n\n    // update existing Haven name with new unique name\n    function updateHavenName(string memory _naturalRightsId, string memory _newHavenName) public returns(bool success) {\n        require(isHavenSet(_naturalRightsId), 'Haven has not been set by user');\n        require(isDevHavenAuthorized(_naturalRightsId), 'msg.sender not authorized for Haven');\n        require(!isHavenName(_newHavenName), 'Haven name already taken');\n        uint256 havenNameHash = uint256(keccak256(bytes(_newHavenName)));\n        uint256 naturalRightsIdHash = uint256(keccak256(bytes(_naturalRightsId)));\n        uint256 oldHavenNameHash = uint256(keccak256(bytes(haven[naturalRightsIdHash].havenName)));\n        delete haven[naturalRightsIdHash].havenName;\n        haven[naturalRightsIdHash].havenName = _newHavenName;\n        delete havenName[oldHavenNameHash];\n        havenName[havenNameHash] = naturalRightsIdHash;\n        return true;\n    }\n\n    function initTransferHavenName(string memory _fromHaven, string memory _toHaven, string memory _expectedHavenName) public returns(bool success) {\n        require(isHavenSet(_fromHaven) && isHavenSet(_toHaven), 'One or both Havens do not exist');\n        require(isDevHavenAuthorized(_fromHaven), 'msg.sender not authorized for Haven');\n        require(uint256(keccak256(bytes(getHavenName(_toHaven)))) == uint256(keccak256(bytes(_expectedHavenName))), 'Expected Haven name not equal to toHaven name');\n        uint256 fromHavenHash = uint256(keccak256(bytes(_fromHaven)));\n        uint256 toHavenHash = uint256(keccak256(bytes(_toHaven)));\n        havenNameTransferQueue[toHavenHash].fromHaven = _fromHaven;\n        havenNameTransferQueue[toHavenHash].listPointer = havenNameTransferList.length;\n        havenNameTransferList.push(fromHavenHash);\n        return true;\n    }\n\n    function confirmTransferHavenName(string memory _toHaven, string memory _expectedHavenName) public returns(bool success) {\n        \n        require(isDevHavenAuthorized(_toHaven), 'msg.sender not authorized for Haven');\n        string memory fromHaven = havenNameTransferQueue[uint256(keccak256(bytes(_toHaven)))].fromHaven;\n        require(isHavenSet(fromHaven) && isHavenSet(_toHaven), 'One or both Havens do not exist');\n        uint256 toHavenHash = uint256(keccak256(bytes(_toHaven)));\n        uint256 fromHavenHash = uint256(keccak256(bytes(fromHaven)));\n        require(keccak256(bytes(haven[fromHavenHash].havenName)) == keccak256(bytes(_expectedHavenName)), 'Havenname mismatch: confirmer expectedHavenName does not match initiator havenName');\n        require(keccak256(bytes(havenNameTransferQueue[toHavenHash].initExpectedHavenName)) == keccak256(bytes(haven[toHavenHash].havenName)), 'Havenname mismatch: confirmer havenName does not match initiators expected havenName');\n        uint256 expectedHavenNameHash = uint256(keccak256(bytes(_expectedHavenName)));\n        uint256 confirmHavenNameHash = uint256(keccak256(bytes(haven[toHavenHash].havenName)));\n        havenName[expectedHavenNameHash] = fromHavenHash;\n        havenName[confirmHavenNameHash] = toHavenHash;\n        haven[fromHavenHash].havenName = haven[toHavenHash].havenName;\n        haven[toHavenHash].havenName = _expectedHavenName;\n        // Remove the havenName transfer queue and row in list\n        uint rowToDelete = havenNameTransferQueue[toHavenHash].listPointer;\n        delete havenNameTransferQueue[toHavenHash];\n        uint256 keyToMove = havenNameTransferList[havenNameTransferList.length-1];\n        havenNameTransferList[rowToDelete] = keyToMove;\n        havenNameTransferQueue[keyToMove].listPointer = rowToDelete;\n        havenNameTransferList.pop();\n        return true;\n    }\n\n    // deletes the haven from the havenList and also deletes the havenName. havenPriv and NR account mapping left for recovery\n    function deleteHaven(string memory _naturalRightsId) public returns(bool success) {\n        require(isDevHavenAuthorized(_naturalRightsId), 'msg.sender not authorized for Haven');\n        require(isHavenSet(_naturalRightsId), 'Haven does not exist');\n        uint256 havenHash = uint256(keccak256(bytes(_naturalRightsId)));\n        uint rowToDelete = haven[havenHash].listPointer;\n        uint256 keyToMove = havenList[havenList.length-1];\n        havenList[rowToDelete] = keyToMove;\n        haven[keyToMove].listPointer = rowToDelete;\n        havenList.pop();\n        uint256 havenNameHash = uint256(keccak256(bytes(haven[havenHash].havenName)));\n        delete havenName[havenNameHash];\n        delete haven[havenHash].havenName; \n        return true;\n    }\n}\n",
  "sourcePath": "/home/charles/Projects/gitlab/haven-truffle/contracts/Havens.sol",
  "compiler": {
    "name": "solc",
    "version": "0.6.3+commit.8dda9521.Emscripten.clang"
  },
  "schemaVersion": "3.0.23",
  "updatedAt": "2020-02-25T05:08:33.413Z",
  "networkType": "ethereum",
  "devdoc": {
    "methods": {
      "isOwner()": {
        "details": "Returns true if the caller is the current owner."
      },
      "owner()": {
        "details": "Returns the address of the current owner."
      },
      "renounceOwnership()": {
        "details": "Leaves the contract without owner. It will not be possible to call `onlyOwner` functions anymore. Can only be called by the current owner.     * NOTE: Renouncing ownership will leave the contract without an owner, thereby removing any functionality that is only available to the owner."
      },
      "transferOwnership(address)": {
        "details": "Transfers ownership of the contract to a new account (`newOwner`). Can only be called by the current owner."
      }
    }
  },
  "userdoc": {
    "methods": {}
  }
}