{
  "contractName": "Wallets",
  "abi": [
    {
      "inputs": [
        {
          "internalType": "address",
          "name": "acctContAddr",
          "type": "address"
        },
        {
          "internalType": "address",
          "name": "kudosContAddr",
          "type": "address"
        }
      ],
      "stateMutability": "nonpayable",
      "type": "constructor"
    },
    {
      "anonymous": false,
      "inputs": [
        {
          "indexed": true,
          "internalType": "address",
          "name": "previousOwner",
          "type": "address"
        },
        {
          "indexed": true,
          "internalType": "address",
          "name": "newOwner",
          "type": "address"
        }
      ],
      "name": "OwnershipTransferred",
      "type": "event"
    },
    {
      "inputs": [],
      "name": "accountContractAddress",
      "outputs": [
        {
          "internalType": "address",
          "name": "",
          "type": "address"
        }
      ],
      "stateMutability": "view",
      "type": "function",
      "constant": true
    },
    {
      "inputs": [],
      "name": "documentContractAddress",
      "outputs": [
        {
          "internalType": "address",
          "name": "",
          "type": "address"
        }
      ],
      "stateMutability": "view",
      "type": "function",
      "constant": true
    },
    {
      "inputs": [],
      "name": "isOwner",
      "outputs": [
        {
          "internalType": "bool",
          "name": "",
          "type": "bool"
        }
      ],
      "stateMutability": "view",
      "type": "function",
      "constant": true
    },
    {
      "inputs": [],
      "name": "kudosContractAddress",
      "outputs": [
        {
          "internalType": "address",
          "name": "",
          "type": "address"
        }
      ],
      "stateMutability": "view",
      "type": "function",
      "constant": true
    },
    {
      "inputs": [],
      "name": "naturalRightsAddress",
      "outputs": [
        {
          "internalType": "address",
          "name": "",
          "type": "address"
        }
      ],
      "stateMutability": "view",
      "type": "function",
      "constant": true
    },
    {
      "inputs": [],
      "name": "owner",
      "outputs": [
        {
          "internalType": "address",
          "name": "",
          "type": "address"
        }
      ],
      "stateMutability": "view",
      "type": "function",
      "constant": true
    },
    {
      "inputs": [],
      "name": "renounceOwnership",
      "outputs": [],
      "stateMutability": "nonpayable",
      "type": "function"
    },
    {
      "inputs": [
        {
          "internalType": "address",
          "name": "newOwner",
          "type": "address"
        }
      ],
      "name": "transferOwnership",
      "outputs": [],
      "stateMutability": "nonpayable",
      "type": "function"
    },
    {
      "inputs": [
        {
          "internalType": "address",
          "name": "_newNaturalRights",
          "type": "address"
        }
      ],
      "name": "setNaturalRightsServer",
      "outputs": [
        {
          "internalType": "bool",
          "name": "success",
          "type": "bool"
        }
      ],
      "stateMutability": "nonpayable",
      "type": "function"
    },
    {
      "inputs": [
        {
          "internalType": "address",
          "name": "_newAcctContAddr",
          "type": "address"
        }
      ],
      "name": "setAccountContract",
      "outputs": [
        {
          "internalType": "bool",
          "name": "success",
          "type": "bool"
        }
      ],
      "stateMutability": "nonpayable",
      "type": "function"
    },
    {
      "inputs": [
        {
          "internalType": "address",
          "name": "_newKudosContAddr",
          "type": "address"
        }
      ],
      "name": "setKudosContract",
      "outputs": [
        {
          "internalType": "bool",
          "name": "success",
          "type": "bool"
        }
      ],
      "stateMutability": "nonpayable",
      "type": "function"
    },
    {
      "inputs": [
        {
          "internalType": "address",
          "name": "_newDocContAddr",
          "type": "address"
        }
      ],
      "name": "setDocContract",
      "outputs": [
        {
          "internalType": "bool",
          "name": "success",
          "type": "bool"
        }
      ],
      "stateMutability": "nonpayable",
      "type": "function"
    },
    {
      "inputs": [
        {
          "internalType": "address",
          "name": "_acctAddr",
          "type": "address"
        }
      ],
      "name": "isDevAuthorized",
      "outputs": [
        {
          "internalType": "bool",
          "name": "isIndeed",
          "type": "bool"
        }
      ],
      "stateMutability": "nonpayable",
      "type": "function"
    },
    {
      "inputs": [
        {
          "internalType": "address",
          "name": "_acctAddr",
          "type": "address"
        }
      ],
      "name": "contAllowance",
      "outputs": [
        {
          "internalType": "uint256",
          "name": "value",
          "type": "uint256"
        }
      ],
      "stateMutability": "nonpayable",
      "type": "function"
    },
    {
      "inputs": [
        {
          "internalType": "address",
          "name": "_acctAddr",
          "type": "address"
        },
        {
          "internalType": "uint256",
          "name": "value",
          "type": "uint256"
        }
      ],
      "name": "depositKudos",
      "outputs": [
        {
          "internalType": "bool",
          "name": "success",
          "type": "bool"
        }
      ],
      "stateMutability": "nonpayable",
      "type": "function"
    },
    {
      "inputs": [
        {
          "internalType": "address",
          "name": "_acctAddr",
          "type": "address"
        }
      ],
      "name": "getAcctBal",
      "outputs": [
        {
          "internalType": "uint256",
          "name": "value",
          "type": "uint256"
        }
      ],
      "stateMutability": "view",
      "type": "function",
      "constant": true
    },
    {
      "inputs": [
        {
          "internalType": "address",
          "name": "_fromAcctAddr",
          "type": "address"
        },
        {
          "internalType": "address",
          "name": "_toAcctAddr",
          "type": "address"
        },
        {
          "internalType": "uint256",
          "name": "value",
          "type": "uint256"
        }
      ],
      "name": "transferKudos",
      "outputs": [
        {
          "internalType": "bool",
          "name": "success",
          "type": "bool"
        }
      ],
      "stateMutability": "nonpayable",
      "type": "function"
    },
    {
      "inputs": [
        {
          "internalType": "address",
          "name": "_fromAcctAddr",
          "type": "address"
        },
        {
          "internalType": "address",
          "name": "_toAcctAddr",
          "type": "address"
        },
        {
          "internalType": "uint256",
          "name": "value",
          "type": "uint256"
        }
      ],
      "name": "transferKudosDoc",
      "outputs": [
        {
          "internalType": "bool",
          "name": "success",
          "type": "bool"
        }
      ],
      "stateMutability": "nonpayable",
      "type": "function"
    },
    {
      "inputs": [],
      "name": "getContBal",
      "outputs": [
        {
          "internalType": "uint256",
          "name": "value",
          "type": "uint256"
        }
      ],
      "stateMutability": "view",
      "type": "function",
      "constant": true
    }
  ],
  "bytecode": "0x608060405234801561001057600080fd5b50604051611dbf380380611dbf8339818101604052604081101561003357600080fd5b810190808051906020019092919080519060200190929190505050600061005e61018560201b60201c565b9050806000806101000a81548173ffffffffffffffffffffffffffffffffffffffff021916908373ffffffffffffffffffffffffffffffffffffffff1602179055508073ffffffffffffffffffffffffffffffffffffffff16600073ffffffffffffffffffffffffffffffffffffffff167f8be0079c531659141344cd1fd0a4f28419497f9722a3daafe3b4186f6b6457e060405160405180910390a35081600160006101000a81548173ffffffffffffffffffffffffffffffffffffffff021916908373ffffffffffffffffffffffffffffffffffffffff16021790555080600260006101000a81548173ffffffffffffffffffffffffffffffffffffffff021916908373ffffffffffffffffffffffffffffffffffffffff160217905550505061018d565b600033905090565b611c238061019c6000396000f3fe608060405234801561001057600080fd5b50600436106101215760003560e01c806385ccd035116100ad578063b90f082011610071578063b90f08201461055a578063de59f79c146105c0578063ef2dbe0e14610618578063f2fde38b14610674578063faeac1fb146106b857610121565b806385ccd0351461041c5780638da5cb5b146104785780638f32d59b146104c2578063a10dc362146104e4578063a277aae41461053c57610121565b80634fb4a8c8116100f45780634fb4a8c8146102d8578063589c1bb4146103225780635b474d161461036c5780636ebc43a6146103b6578063715018a61461041257610121565b806304428d65146101265780633e320610146101ac57806347d94e55146101f65780634a9a0ae914610252575b600080fd5b6101926004803603606081101561013c57600080fd5b81019080803573ffffffffffffffffffffffffffffffffffffffff169060200190929190803573ffffffffffffffffffffffffffffffffffffffff16906020019092919080359060200190929190505050610714565b604051808215151515815260200191505060405180910390f35b6101b461089d565b604051808273ffffffffffffffffffffffffffffffffffffffff1673ffffffffffffffffffffffffffffffffffffffff16815260200191505060405180910390f35b6102386004803603602081101561020c57600080fd5b81019080803573ffffffffffffffffffffffffffffffffffffffff1690602001909291905050506108c3565b604051808215151515815260200191505060405180910390f35b6102be6004803603606081101561026857600080fd5b81019080803573ffffffffffffffffffffffffffffffffffffffff169060200190929190803573ffffffffffffffffffffffffffffffffffffffff16906020019092919080359060200190929190505050610a2c565b604051808215151515815260200191505060405180910390f35b6102e0610c1a565b604051808273ffffffffffffffffffffffffffffffffffffffff1673ffffffffffffffffffffffffffffffffffffffff16815260200191505060405180910390f35b61032a610c40565b604051808273ffffffffffffffffffffffffffffffffffffffff1673ffffffffffffffffffffffffffffffffffffffff16815260200191505060405180910390f35b610374610c66565b604051808273ffffffffffffffffffffffffffffffffffffffff1673ffffffffffffffffffffffffffffffffffffffff16815260200191505060405180910390f35b6103f8600480360360208110156103cc57600080fd5b81019080803573ffffffffffffffffffffffffffffffffffffffff169060200190929190505050610c8c565b604051808215151515815260200191505060405180910390f35b61041a610df5565b005b61045e6004803603602081101561043257600080fd5b81019080803573ffffffffffffffffffffffffffffffffffffffff169060200190929190505050610f2e565b604051808215151515815260200191505060405180910390f35b610480611097565b604051808273ffffffffffffffffffffffffffffffffffffffff1673ffffffffffffffffffffffffffffffffffffffff16815260200191505060405180910390f35b6104ca6110c0565b604051808215151515815260200191505060405180910390f35b610526600480360360208110156104fa57600080fd5b81019080803573ffffffffffffffffffffffffffffffffffffffff16906020019092919050505061111e565b6040518082815260200191505060405180910390f35b610544611237565b6040518082815260200191505060405180910390f35b6105a66004803603604081101561057057600080fd5b81019080803573ffffffffffffffffffffffffffffffffffffffff16906020019092919080359060200190929190505050611241565b604051808215151515815260200191505060405180910390f35b610602600480360360208110156105d657600080fd5b81019080803573ffffffffffffffffffffffffffffffffffffffff1690602001909291905050506116dd565b6040518082815260200191505060405180910390f35b61065a6004803603602081101561062e57600080fd5b81019080803573ffffffffffffffffffffffffffffffffffffffff169060200190929190505050611729565b604051808215151515815260200191505060405180910390f35b6106b66004803603602081101561068a57600080fd5b81019080803573ffffffffffffffffffffffffffffffffffffffff169060200190929190505050611892565b005b6106fa600480360360208110156106ce57600080fd5b81019080803573ffffffffffffffffffffffffffffffffffffffff169060200190929190505050611918565b604051808215151515815260200191505060405180910390f35b600061071f84611918565b610774576040517f08c379a0000000000000000000000000000000000000000000000000000000008152600401808060200182810382526025815260200180611ba46025913960400191505060405180910390fd5b8161077e856116dd565b10156107f2576040517f08c379a00000000000000000000000000000000000000000000000000000000081526004018080602001828103825260178152602001807f6163636f756e742062616c616e636520746f6f206c6f7700000000000000000081525060200191505060405180910390fd5b81600860008673ffffffffffffffffffffffffffffffffffffffff1673ffffffffffffffffffffffffffffffffffffffff1681526020019081526020016000206000016000828254039250508190555081600860008573ffffffffffffffffffffffffffffffffffffffff1673ffffffffffffffffffffffffffffffffffffffff16815260200190815260200160002060000160008282540192505081905550600190509392505050565b600760009054906101000a900473ffffffffffffffffffffffffffffffffffffffff1681565b60006108cd6110c0565b61093f576040517f08c379a00000000000000000000000000000000000000000000000000000000081526004018080602001828103825260208152602001807f4f776e61626c653a2063616c6c6572206973206e6f7420746865206f776e657281525060200191505060405180910390fd5b600073ffffffffffffffffffffffffffffffffffffffff168273ffffffffffffffffffffffffffffffffffffffff1614156109e2576040517f08c379a00000000000000000000000000000000000000000000000000000000081526004018080602001828103825260188152602001807f61646472657373206d757374206e6f7420657175616c2030000000000000000081525060200191505060405180910390fd5b81600160006101000a81548173ffffffffffffffffffffffffffffffffffffffff021916908373ffffffffffffffffffffffffffffffffffffffff16021790555060019050919050565b6000600760009054906101000a900473ffffffffffffffffffffffffffffffffffffffff1673ffffffffffffffffffffffffffffffffffffffff163373ffffffffffffffffffffffffffffffffffffffff1614610af1576040517f08c379a00000000000000000000000000000000000000000000000000000000081526004018080602001828103825260178152602001807f6e6f742074686520446f63756d656e742053657276657200000000000000000081525060200191505060405180910390fd5b81610afb856116dd565b1015610b6f576040517f08c379a00000000000000000000000000000000000000000000000000000000081526004018080602001828103825260178152602001807f6163636f756e742062616c616e636520746f6f206c6f7700000000000000000081525060200191505060405180910390fd5b81600860008673ffffffffffffffffffffffffffffffffffffffff1673ffffffffffffffffffffffffffffffffffffffff1681526020019081526020016000206000016000828254039250508190555081600860008573ffffffffffffffffffffffffffffffffffffffff1673ffffffffffffffffffffffffffffffffffffffff16815260200190815260200160002060000160008282540192505081905550600190509392505050565b600460009054906101000a900473ffffffffffffffffffffffffffffffffffffffff1681565b600560009054906101000a900473ffffffffffffffffffffffffffffffffffffffff1681565b600660009054906101000a900473ffffffffffffffffffffffffffffffffffffffff1681565b6000610c966110c0565b610d08576040517f08c379a00000000000000000000000000000000000000000000000000000000081526004018080602001828103825260208152602001807f4f776e61626c653a2063616c6c6572206973206e6f7420746865206f776e657281525060200191505060405180910390fd5b600073ffffffffffffffffffffffffffffffffffffffff168273ffffffffffffffffffffffffffffffffffffffff161415610dab576040517f08c379a00000000000000000000000000000000000000000000000000000000081526004018080602001828103825260188152602001807f61646472657373206d757374206e6f7420657175616c2030000000000000000081525060200191505060405180910390fd5b81600760006101000a81548173ffffffffffffffffffffffffffffffffffffffff021916908373ffffffffffffffffffffffffffffffffffffffff16021790555060019050919050565b610dfd6110c0565b610e6f576040517f08c379a00000000000000000000000000000000000000000000000000000000081526004018080602001828103825260208152602001807f4f776e61626c653a2063616c6c6572206973206e6f7420746865206f776e657281525060200191505060405180910390fd5b600073ffffffffffffffffffffffffffffffffffffffff166000809054906101000a900473ffffffffffffffffffffffffffffffffffffffff1673ffffffffffffffffffffffffffffffffffffffff167f8be0079c531659141344cd1fd0a4f28419497f9722a3daafe3b4186f6b6457e060405160405180910390a360008060006101000a81548173ffffffffffffffffffffffffffffffffffffffff021916908373ffffffffffffffffffffffffffffffffffffffff160217905550565b6000610f386110c0565b610faa576040517f08c379a00000000000000000000000000000000000000000000000000000000081526004018080602001828103825260208152602001807f4f776e61626c653a2063616c6c6572206973206e6f7420746865206f776e657281525060200191505060405180910390fd5b600073ffffffffffffffffffffffffffffffffffffffff168273ffffffffffffffffffffffffffffffffffffffff16141561104d576040517f08c379a00000000000000000000000000000000000000000000000000000000081526004018080602001828103825260188152602001807f61646472657373206d757374206e6f7420657175616c2030000000000000000081525060200191505060405180910390fd5b81600460006101000a81548173ffffffffffffffffffffffffffffffffffffffff021916908373ffffffffffffffffffffffffffffffffffffffff16021790555060019050919050565b60008060009054906101000a900473ffffffffffffffffffffffffffffffffffffffff16905090565b60008060009054906101000a900473ffffffffffffffffffffffffffffffffffffffff1673ffffffffffffffffffffffffffffffffffffffff16611102611a31565b73ffffffffffffffffffffffffffffffffffffffff1614905090565b6000600260009054906101000a900473ffffffffffffffffffffffffffffffffffffffff1673ffffffffffffffffffffffffffffffffffffffff1663dd62ed3e83306040518363ffffffff1660e01b8152600401808373ffffffffffffffffffffffffffffffffffffffff1673ffffffffffffffffffffffffffffffffffffffff1681526020018273ffffffffffffffffffffffffffffffffffffffff1673ffffffffffffffffffffffffffffffffffffffff16815260200192505050602060405180830381600087803b1580156111f557600080fd5b505af1158015611209573d6000803e3d6000fd5b505050506040513d602081101561121f57600080fd5b81019080805190602001909291905050509050919050565b6000600354905090565b600061124c83611918565b6112a1576040517f08c379a0000000000000000000000000000000000000000000000000000000008152600401808060200182810382526025815260200180611ba46025913960400191505060405180910390fd5b81600260009054906101000a900473ffffffffffffffffffffffffffffffffffffffff1673ffffffffffffffffffffffffffffffffffffffff166370a08231856040518263ffffffff1660e01b8152600401808273ffffffffffffffffffffffffffffffffffffffff1673ffffffffffffffffffffffffffffffffffffffff168152602001915050602060405180830381600087803b15801561134357600080fd5b505af1158015611357573d6000803e3d6000fd5b505050506040513d602081101561136d57600080fd5b810190808051906020019092919050505010156113d5576040517f08c379a0000000000000000000000000000000000000000000000000000000008152600401808060200182810382526025815260200180611bc96025913960400191505060405180910390fd5b81600260009054906101000a900473ffffffffffffffffffffffffffffffffffffffff1673ffffffffffffffffffffffffffffffffffffffff1663dd62ed3e85306040518363ffffffff1660e01b8152600401808373ffffffffffffffffffffffffffffffffffffffff1673ffffffffffffffffffffffffffffffffffffffff1681526020018273ffffffffffffffffffffffffffffffffffffffff1673ffffffffffffffffffffffffffffffffffffffff16815260200192505050602060405180830381600087803b1580156114ab57600080fd5b505af11580156114bf573d6000803e3d6000fd5b505050506040513d60208110156114d557600080fd5b8101908080519060200190929190505050101561155a576040517f08c379a000000000000000000000000000000000000000000000000000000000815260040180806020018281038252601f8152602001807f73656e64657220686173206e6f7420656e6f75676820616c6c6f77616e63650081525060200191505060405180910390fd5b600260009054906101000a900473ffffffffffffffffffffffffffffffffffffffff1673ffffffffffffffffffffffffffffffffffffffff166323b872dd8430856040518463ffffffff1660e01b8152600401808473ffffffffffffffffffffffffffffffffffffffff1673ffffffffffffffffffffffffffffffffffffffff1681526020018373ffffffffffffffffffffffffffffffffffffffff1673ffffffffffffffffffffffffffffffffffffffff1681526020018281526020019350505050602060405180830381600087803b15801561163757600080fd5b505af115801561164b573d6000803e3d6000fd5b505050506040513d602081101561166157600080fd5b81019080805190602001909291905050505081600860008573ffffffffffffffffffffffffffffffffffffffff1673ffffffffffffffffffffffffffffffffffffffff16815260200190815260200160002060000160008282540192505081905550816003600082825401925050819055506001905092915050565b6000600860008373ffffffffffffffffffffffffffffffffffffffff1673ffffffffffffffffffffffffffffffffffffffff168152602001908152602001600020600001549050919050565b60006117336110c0565b6117a5576040517f08c379a00000000000000000000000000000000000000000000000000000000081526004018080602001828103825260208152602001807f4f776e61626c653a2063616c6c6572206973206e6f7420746865206f776e657281525060200191505060405180910390fd5b600073ffffffffffffffffffffffffffffffffffffffff168273ffffffffffffffffffffffffffffffffffffffff161415611848576040517f08c379a00000000000000000000000000000000000000000000000000000000081526004018080602001828103825260188152602001807f61646472657373206d757374206e6f7420657175616c2030000000000000000081525060200191505060405180910390fd5b81600260006101000a81548173ffffffffffffffffffffffffffffffffffffffff021916908373ffffffffffffffffffffffffffffffffffffffff16021790555060019050919050565b61189a6110c0565b61190c576040517f08c379a00000000000000000000000000000000000000000000000000000000081526004018080602001828103825260208152602001807f4f776e61626c653a2063616c6c6572206973206e6f7420746865206f776e657281525060200191505060405180910390fd5b61191581611a39565b50565b6000600160009054906101000a900473ffffffffffffffffffffffffffffffffffffffff1673ffffffffffffffffffffffffffffffffffffffff1663e56f9af883336040518363ffffffff1660e01b8152600401808373ffffffffffffffffffffffffffffffffffffffff1673ffffffffffffffffffffffffffffffffffffffff1681526020018273ffffffffffffffffffffffffffffffffffffffff1673ffffffffffffffffffffffffffffffffffffffff16815260200192505050602060405180830381600087803b1580156119ef57600080fd5b505af1158015611a03573d6000803e3d6000fd5b505050506040513d6020811015611a1957600080fd5b81019080805190602001909291905050509050919050565b600033905090565b600073ffffffffffffffffffffffffffffffffffffffff168173ffffffffffffffffffffffffffffffffffffffff161415611abf576040517f08c379a0000000000000000000000000000000000000000000000000000000008152600401808060200182810382526026815260200180611b7e6026913960400191505060405180910390fd5b8073ffffffffffffffffffffffffffffffffffffffff166000809054906101000a900473ffffffffffffffffffffffffffffffffffffffff1673ffffffffffffffffffffffffffffffffffffffff167f8be0079c531659141344cd1fd0a4f28419497f9722a3daafe3b4186f6b6457e060405160405180910390a3806000806101000a81548173ffffffffffffffffffffffffffffffffffffffff021916908373ffffffffffffffffffffffffffffffffffffffff1602179055505056fe4f776e61626c653a206e6577206f776e657220697320746865207a65726f20616464726573736d73672e73656e646572206e6f7420617574686f72697a656420666f72206163636f756e746e6f7420656e6f75676820746f6b656e7320696e2073656e64657227732062616c616e6365a2646970667358221220bfebfb8a583b5c79788034b1e53c57a6a08088501c9c7d67a804f90e4a3233d964736f6c63430006030033",
  "source": "pragma solidity ^0.6.3;\n\n// import \"openzeppelin-solidity/contracts/ownership/Ownable.sol\";\nimport \"../node_modules/openzeppelin-solidity/contracts/ownership/Ownable.sol\";\n\ninterface AcctCont {\n    function isDevAuthorized(address, address) external returns (bool);\n}\n\ninterface ERC20Token {\n  function allowance(address, address) external returns (uint256);\n  function balanceOf(address) external returns (uint256);\n  function transferFrom(address, address, uint) external returns (bool);\n}\n\ncontract Wallets is Ownable {\n\n    AcctCont ac; // Haven Account Contract (ac)\n    ERC20Token kc; // Kudos contract (kc)\n    uint256 contKudosBal; // Kudos held by contract\n    \n    // The address of the Natural Rights Server\n    address public naturalRightsAddress;\n\n    // The address of the Account Contract\n    address public accountContractAddress;\n    \n    // The address of the Kudos Contract\n    address public kudosContractAddress;\n\n    // The address of the Document Contract\n    address public documentContractAddress;\n    \n    constructor(address acctContAddr, address kudosContAddr) public {\n        ac = AcctCont(acctContAddr);\n        kc = ERC20Token(kudosContAddr);\n    }\n\n    // @dev Access modifier for NR-only functionality\n    modifier onlyNR() {\n        require(msg.sender == naturalRightsAddress, \"not the NR Server\");\n        _;\n    }\n\n    // @dev Access modifier for NR-only functionality\n    modifier onlyDocuments() {\n        require(msg.sender == documentContractAddress, \"not the Document Server\");\n        _;\n    }\n\n    struct walletStruct {\n        uint256 kudosBalance; // Kudos balance\n    }\n\n    mapping (address => walletStruct) wallet; // natural rights Haven ID hash to public identifiers\n\n    // Only contract owner may change Natural Rights Server\n    function setNaturalRightsServer(address _newNaturalRights) public onlyOwner returns(bool success) {\n        require(_newNaturalRights != address(0), \"address must not equal 0\");\n        naturalRightsAddress = _newNaturalRights;\n        return true;\n    }\n\n    // Only contract owner may change Account Contract Address\n    function setAccountContract(address _newAcctContAddr) public onlyOwner returns(bool success) {\n        require(_newAcctContAddr != address(0), \"address must not equal 0\");\n        ac = AcctCont(_newAcctContAddr);\n        return true;\n    }\n    \n    // Only contract owner may change Kudos Contract Address\n    function setKudosContract(address _newKudosContAddr) public onlyOwner returns(bool success) {\n        require(_newKudosContAddr != address(0), \"address must not equal 0\");\n        kc = ERC20Token(_newKudosContAddr);\n        return true;\n    }\n\n    // Only contract owner may change Document Contract Address\n    function setDocContract(address _newDocContAddr) public onlyOwner returns(bool success) {\n        require(_newDocContAddr != address(0), \"address must not equal 0\");\n        documentContractAddress = _newDocContAddr;\n        return true;\n    }\n\n    // Is msg.sender authorized to sign for the account?\n    function isDevAuthorized(address _acctAddr) public returns(bool isIndeed) {\n        return ac.isDevAuthorized(_acctAddr, msg.sender);\n    }\n\n    // Check allowance from address to contract\n    function contAllowance(address _acctAddr) public returns(uint256 value) {\n        return kc.allowance(_acctAddr, address(this));\n    }\n    \n    // Add kudos from account\n    function depositKudos(address _acctAddr, uint256 value) public returns(bool success) {\n        require(isDevAuthorized(_acctAddr), \"msg.sender not authorized for account\");\n        require(kc.balanceOf(_acctAddr) >= value, \"not enough tokens in sender's balance\");\n        require(kc.allowance(_acctAddr, address(this)) >= value, \"sender has not enough allowance\");\n        kc.transferFrom(_acctAddr, address(this), value);\n        wallet[_acctAddr].kudosBalance += value;\n        contKudosBal += value;\n        return true;\n    }\n\n    function getAcctBal(address _acctAddr) public view returns(uint256 value) {\n        return wallet[_acctAddr].kudosBalance;\n    }\n\n    function transferKudos(address _fromAcctAddr, address _toAcctAddr, uint256 value) public returns(bool success) {\n        require(isDevAuthorized(_fromAcctAddr), \"msg.sender not authorized for account\");\n        require(getAcctBal(_fromAcctAddr)>=value, \"account balance too low\");\n        wallet[_fromAcctAddr].kudosBalance -= value;\n        wallet[_toAcctAddr].kudosBalance += value;\n        return true;\n    }\n\n    function transferKudosDoc(address _fromAcctAddr, address _toAcctAddr, uint256 value) public onlyDocuments returns(bool success) {\n        require(getAcctBal(_fromAcctAddr)>=value, \"account balance too low\");\n        wallet[_fromAcctAddr].kudosBalance -= value;\n        wallet[_toAcctAddr].kudosBalance += value;\n        return true;\n    }\n    \n    function getContBal() public view returns(uint256 value) {\n        return contKudosBal;\n    }\n}\n",
  "sourcePath": "/home/charles/Projects/gitlab/haven-truffle/contracts/Wallets.sol",
  "compiler": {
    "name": "solc",
    "version": "0.6.3+commit.8dda9521.Emscripten.clang"
  },
  "schemaVersion": "3.0.23",
  "updatedAt": "2020-03-02T17:07:09.946Z",
  "networkType": "ethereum",
  "devdoc": {
    "methods": {
      "isOwner()": {
        "details": "Returns true if the caller is the current owner."
      },
      "owner()": {
        "details": "Returns the address of the current owner."
      },
      "renounceOwnership()": {
        "details": "Leaves the contract without owner. It will not be possible to call `onlyOwner` functions anymore. Can only be called by the current owner.     * NOTE: Renouncing ownership will leave the contract without an owner, thereby removing any functionality that is only available to the owner."
      },
      "transferOwnership(address)": {
        "details": "Transfers ownership of the contract to a new account (`newOwner`). Can only be called by the current owner."
      }
    }
  },
  "userdoc": {
    "methods": {}
  }
}